{
  "contractName": "AuctionEscrow",
  "abi": [
    {
      "constant": true,
      "inputs": [
        {
          "name": "",
          "type": "uint256"
        }
      ],
      "name": "arrBuyers",
      "outputs": [
        {
          "name": "",
          "type": "address"
        }
      ],
      "payable": false,
      "stateMutability": "view",
      "type": "function"
    },
    {
      "constant": true,
      "inputs": [
        {
          "name": "",
          "type": "address"
        }
      ],
      "name": "payments",
      "outputs": [
        {
          "name": "amount",
          "type": "uint256"
        },
        {
          "name": "released",
          "type": "bool"
        },
        {
          "name": "tktReceived",
          "type": "bool"
        },
        {
          "name": "releaseDate",
          "type": "uint256"
        }
      ],
      "payable": false,
      "stateMutability": "view",
      "type": "function"
    },
    {
      "inputs": [
        {
          "name": "_actioneer",
          "type": "address"
        },
        {
          "name": "_auction",
          "type": "address"
        }
      ],
      "payable": false,
      "stateMutability": "nonpayable",
      "type": "constructor"
    },
    {
      "anonymous": false,
      "inputs": [
        {
          "indexed": false,
          "name": "buyer",
          "type": "address"
        },
        {
          "indexed": false,
          "name": "price",
          "type": "uint256"
        }
      ],
      "name": "TicketPaid",
      "type": "event"
    },
    {
      "anonymous": false,
      "inputs": [
        {
          "indexed": false,
          "name": "buyer",
          "type": "address"
        }
      ],
      "name": "TicketReceipt",
      "type": "event"
    },
    {
      "anonymous": false,
      "inputs": [
        {
          "indexed": false,
          "name": "evtMsg",
          "type": "string"
        }
      ],
      "name": "SelfDestructError",
      "type": "event"
    },
    {
      "anonymous": false,
      "inputs": [
        {
          "indexed": false,
          "name": "buyer",
          "type": "address"
        },
        {
          "indexed": false,
          "name": "evtMsg",
          "type": "string"
        }
      ],
      "name": "DoublePayError",
      "type": "event"
    },
    {
      "anonymous": false,
      "inputs": [
        {
          "indexed": false,
          "name": "buyer",
          "type": "address"
        }
      ],
      "name": "PaymentRelease",
      "type": "event"
    },
    {
      "anonymous": false,
      "inputs": [
        {
          "indexed": false,
          "name": "buyer",
          "type": "address"
        },
        {
          "indexed": false,
          "name": "price",
          "type": "uint256"
        }
      ],
      "name": "PaymentReleaseFail",
      "type": "event"
    },
    {
      "constant": true,
      "inputs": [
        {
          "name": "buyer",
          "type": "address"
        }
      ],
      "name": "hasPaid",
      "outputs": [
        {
          "name": "paymentStatus",
          "type": "bool"
        }
      ],
      "payable": false,
      "stateMutability": "view",
      "type": "function"
    },
    {
      "constant": false,
      "inputs": [],
      "name": "recordTicketReceipt",
      "outputs": [],
      "payable": false,
      "stateMutability": "nonpayable",
      "type": "function"
    },
    {
      "constant": false,
      "inputs": [],
      "name": "cleanup",
      "outputs": [],
      "payable": false,
      "stateMutability": "nonpayable",
      "type": "function"
    },
    {
      "constant": false,
      "inputs": [],
      "name": "payForTickets",
      "outputs": [],
      "payable": true,
      "stateMutability": "payable",
      "type": "function"
    },
    {
      "constant": false,
      "inputs": [
        {
          "name": "buyer",
          "type": "address"
        }
      ],
      "name": "releasePayment",
      "outputs": [],
      "payable": false,
      "stateMutability": "nonpayable",
      "type": "function"
    }
  ],
  "bytecode": "0x608060405234801561001057600080fd5b5060405160408061090883398101604052805160209091015160008054600160a060020a03938416600160a060020a031991821617909155600180549390921692169190911790556108a1806100676000396000f3006080604052600436106100825763ffffffff7c01000000000000000000000000000000000000000000000000000000006000350416633cecd71981146100875780635a6c9e6d1461009e57806377e2f10b146100d2578063baac3039146100f3578063e2982c21146100fb578063f8c5079f14610142578063fbf47a9a14610157575b600080fd5b34801561009357600080fd5b5061009c61018c565b005b3480156100aa57600080fd5b506100b660043561024e565b60408051600160a060020a039092168252519081900360200190f35b3480156100de57600080fd5b5061009c600160a060020a0360043516610276565b61009c6103d4565b34801561010757600080fd5b5061011c600160a060020a03600435166106dd565b604080519485529215156020850152901515838301526060830152519081900360800190f35b34801561014e57600080fd5b5061009c61070a565b34801561016357600080fd5b50610178600160a060020a03600435166107ac565b604080519115158252519081900360200190f35b60005433600160a060020a039081169116146101a757600080fd5b6101af6107f4565b1515610240576040805160208082526029908201527f556e72656c6561736564207469636b6574732065786973742e2043616e6e6f74818301527f2064657374727563740000000000000000000000000000000000000000000000606082015290517f87e615831b9659008284796071882a6b839e6b9e50d1b4ebb418f9a9a37339339181900360800190a1600080fd5b600054600160a060020a0316ff5b600380548290811061025c57fe5b600091825260209091200154600160a060020a0316905081565b6000805433600160a060020a0390811691161461029257600080fd5b61029b826107ac565b80156102cc5750600160a060020a0382166000908152600260205260409020600190810154610100900460ff161515145b156100825760008054600160a060020a03848116835260026020526040808420549051919092169282156108fc02929190818181858888f193505050509050801561037d57600160a060020a03821660008181526002602081815260408084209384556001808501805460ff191690911790554293909201929092558051928352517fa764d113e2e2c0ea8ba375fc4af4d51699ff50d8df3b165f150acd7046140bd19281900390910190a16103d0565b600160a060020a0382166000818152600260209081526040918290205482519384529083015280517fe6a2603be188c2c3455276d0b91506694b05c85fd2359728b372d97cd67550db9281900390910190a15b5050565b6000806000600160009054906101000a9004600160a060020a0316600160a060020a03166322f3e2d46040518163ffffffff167c0100000000000000000000000000000000000000000000000000000000028152600401602060405180830381600087803b15801561044557600080fd5b505af1158015610459573d6000803e3d6000fd5b505050506040513d602081101561046f57600080fd5b505115156106d857600160a060020a0333166000908152600260205260409020600181015490935060ff161580156104a657508254155b1561066457600154604080517f10589fc4000000000000000000000000000000000000000000000000000000008152600160a060020a033381166004830152915134955091909216916310589fc49160248083019260209291908290030181600087803b15801561051657600080fd5b505af115801561052a573d6000803e3d6000fd5b505050506040513d602081101561054057600080fd5b50519050600063ffffffff821611801561055f5750818163ffffffff16145b1561008257604080516080810182523481526000602080830182815283850183815260608501848152600160a060020a033316808652600280865288872097518855935160018881018054955115156101000261ff001993151560ff199097169690961792909216949094179055905195909201949094556003805494850181559092527fc2575a0e9e593c00f959f8c92f12db2869c3395a3b0502d05e2516446f71f85b909201805473ffffffffffffffffffffffffffffffffffffffff191682179055855483519182529181019190915281517f178f1ca51ff9fb48abc63bc73ce1f207326d118d026f63d43a66be1715550545929181900390910190a16106d8565b60408051600160a060020a0333168152602081018290526016818301527f4275796572206861732070616964206561726c69657200000000000000000000606082015290517f133fa3eaed3030715238d6887febd227d6773b7b9410b44a70932bf3d231a0e19181900360800190a1600080fd5b505050565b600260208190526000918252604090912080546001820154919092015460ff808316926101009004169084565b610713336107ac565b15156001148015610745575033600160a060020a0316600090815260026020526040902060010154610100900460ff16155b151561074d57fe5b600160a060020a033316600081815260026020908152604091829020600101805461ff001916610100179055815192835290517fed36f02945d1d1014e57403638d8def0a870a7b3a63182d38eccae651fbde33e9281900390910190a1565b600160a060020a03811660009081526002602052604081206001015460ff161580156107ee5750600160a060020a038216600090815260026020526040812054115b92915050565b600080805b60035482101561086b576002600060038481548110151561081657fe5b6000918252602080832090910154600160a060020a031683528201929092526040019020600181015490915060ff161580610852575080546000105b156108605760009250610870565b6001909101906107f9565b600192505b5050905600a165627a7a7230582095ef243b2725e0f3c1d54c37ae9e476666592a4737a0928786614f44be83a0330029",
  "source": "pragma solidity ^0.4.11;\n\nimport './Auction.sol';\n\n/**\n* Instance of this will be per auction\n* It holds all the money during bidding of each auction\n* and finally refunds the balances as applicable to the bidders\n*/\ncontract AuctionEscrow {\n\n    address private auctioneer;\n    Auction private auction;\n\n    \n    event TicketPaid(address buyer, uint256 price);\n    event TicketReceipt(address buyer);\n    event SelfDestructError(string evtMsg);\n    event DoublePayError(address buyer, string evtMsg);\n    event PaymentRelease(address buyer);\n    event PaymentReleaseFail(address buyer, uint256 price);\n\n    modifier auctioneerOnly {\n        if(msg.sender != auctioneer) revert();\n        _;\n    }\n    \n    /**\n     * Each buyers payment status is stored here.\n     * Once buyer confirms recieving ticket \n     * the funds are moved to auctioneer\n    */\n    mapping (address => Payment) public payments;\n    address [] public arrBuyers;\n\n    struct Payment {\n        uint256 amount;\n        bool released;\n        bool tktReceived;\n        uint256 releaseDate;\n    }\n \n \n    function AuctionEscrow(address _actioneer, Auction _auction) public {\n        auctioneer = _actioneer;\n        auction = _auction;\n    }\n    \n    /**\n     * If buyer has paid then value will be greater than 0\n    */\n    function hasPaid (address buyer) public constant returns (bool paymentStatus) {\n        return payments[buyer].released == false && payments[buyer].amount > 0;\n    }\n\n    \n    function recordTicketReceipt() public {\n        //dont update ticket status if not paid\n        assert( hasPaid(msg.sender) == true && payments[msg.sender].tktReceived == false);\n        //update status \n        payments[msg.sender].tktReceived = true;\n        TicketReceipt(msg.sender);\n    }\n    \n    // /** Dont accept payment on contract. Cleanup method would avoid this problem*/\n    // function () { throw; }\n    \n    /**\n     * Atleast at this point the assumption is that someone \n     * cannot call selfdestruct directly on contract even if \n     * this contract does not override it\n     */\n    function cleanup() public auctioneerOnly {\n        if(canDelete() == false) {\n            SelfDestructError(\"Unreleased tickets exist. Cannot destruct\");\n            revert();\n        }\n        selfdestruct(auctioneer);\n    }\n    \n    function canDelete() private returns (bool del) {\n        for(uint256 i = 0; i < arrBuyers.length; i++) {\n            Payment p = payments[arrBuyers[i]];\n            if(p.released == false || p.amount > 0) {\n                return false;\n            }\n        }\n        return true;\n    }\n\n    /**\n     * Called by the customer for him to recieve the tickets\n     * \n     */\n    function payForTickets() public payable {\n\n        //check that auction has expired\n        if(!auction.isActive()) {\n                Payment storage p = payments[msg.sender];\n                if(!p.released && p.amount == 0) { //allow only once\n                    uint txnVal = msg.value;\n                    uint32 bidTotal = auction.getPayableBidsTotal(msg.sender);\n                    //accept payment for all tickets only\n                    if(bidTotal > 0 && bidTotal == txnVal) {\n\n                        payments[msg.sender] = Payment({amount: msg.value, released: false, tktReceived : false, releaseDate: 0});\n                        arrBuyers.push(msg.sender);\n                        TicketPaid(msg.sender, p.amount);\n                        \n                    } else {//dont accept money if total is less\n                        revert();\n                    }\n                } else {\n                    DoublePayError(msg.sender, \"Buyer has paid earlier\");\n                    revert();\n                }\n        }\n    }\n\n\n\n    /**\n     * The public function which the auctioneer will call to move funds\n     * to his account\n     */\n    function releasePayment(address buyer) public auctioneerOnly {\n        \n        if(hasPaid(buyer) && payments[buyer].tktReceived == true) {\n            bool sent = auctioneer.send(payments[buyer].amount);\n            if(sent) {\n                payments[buyer].amount = 0;\n                payments[buyer].released = true;\n                payments[buyer].releaseDate = now;\n                PaymentRelease(buyer);\n            } else {\n                PaymentReleaseFail(buyer, payments[buyer].amount);\n            }\n        } else {\n            revert();\n        }\n\n    }\n    \n  \n\n\n\n}",
  "sourcePath": "/Users/austinhwang/Documents/GitHub/datachain/contracts/AuctionEscrow.sol",
  "compiler": {
    "name": "solc",
    "version": "0.4.23+commit.124ca40d.Emscripten.clang"
  },
  "schemaVersion": "2.0.0",
  "updatedAt": "2018-04-25T03:12:07.620Z"
}