{
  "contractName": "Auction",
  "abi": [
    {
      "constant": true,
      "inputs": [
        {
          "name": "",
          "type": "address"
        },
        {
          "name": "",
          "type": "uint256"
        }
      ],
      "name": "allotedTickets",
      "outputs": [
        {
          "name": "id",
          "type": "uint32"
        },
        {
          "name": "pricePaid",
          "type": "uint32"
        },
        {
          "name": "owner",
          "type": "address"
        }
      ],
      "payable": false,
      "stateMutability": "view",
      "type": "function"
    },
    {
      "constant": true,
      "inputs": [],
      "name": "currentBidCount",
      "outputs": [
        {
          "name": "",
          "type": "uint32"
        }
      ],
      "payable": false,
      "stateMutability": "view",
      "type": "function"
    },
    {
      "constant": true,
      "inputs": [],
      "name": "isActive",
      "outputs": [
        {
          "name": "",
          "type": "bool"
        }
      ],
      "payable": false,
      "stateMutability": "view",
      "type": "function"
    },
    {
      "constant": true,
      "inputs": [],
      "name": "endTime",
      "outputs": [
        {
          "name": "",
          "type": "uint256"
        }
      ],
      "payable": false,
      "stateMutability": "view",
      "type": "function"
    },
    {
      "constant": true,
      "inputs": [],
      "name": "lastBid",
      "outputs": [
        {
          "name": "",
          "type": "uint32"
        }
      ],
      "payable": false,
      "stateMutability": "view",
      "type": "function"
    },
    {
      "constant": true,
      "inputs": [],
      "name": "auctioneer",
      "outputs": [
        {
          "name": "",
          "type": "address"
        }
      ],
      "payable": false,
      "stateMutability": "view",
      "type": "function"
    },
    {
      "constant": true,
      "inputs": [],
      "name": "maxBidsPerTicket",
      "outputs": [
        {
          "name": "",
          "type": "uint32"
        }
      ],
      "payable": false,
      "stateMutability": "view",
      "type": "function"
    },
    {
      "constant": true,
      "inputs": [],
      "name": "lastBidder",
      "outputs": [
        {
          "name": "",
          "type": "address"
        }
      ],
      "payable": false,
      "stateMutability": "view",
      "type": "function"
    },
    {
      "constant": true,
      "inputs": [],
      "name": "highestBidder",
      "outputs": [
        {
          "name": "",
          "type": "address"
        }
      ],
      "payable": false,
      "stateMutability": "view",
      "type": "function"
    },
    {
      "constant": true,
      "inputs": [],
      "name": "balanceTikets",
      "outputs": [
        {
          "name": "",
          "type": "uint32"
        }
      ],
      "payable": false,
      "stateMutability": "view",
      "type": "function"
    },
    {
      "constant": true,
      "inputs": [
        {
          "name": "",
          "type": "uint32"
        },
        {
          "name": "",
          "type": "address"
        }
      ],
      "name": "bids",
      "outputs": [
        {
          "name": "",
          "type": "uint32"
        }
      ],
      "payable": false,
      "stateMutability": "view",
      "type": "function"
    },
    {
      "constant": true,
      "inputs": [],
      "name": "minimumBid",
      "outputs": [
        {
          "name": "",
          "type": "uint32"
        }
      ],
      "payable": false,
      "stateMutability": "view",
      "type": "function"
    },
    {
      "constant": true,
      "inputs": [],
      "name": "highestBid",
      "outputs": [
        {
          "name": "",
          "type": "uint32"
        }
      ],
      "payable": false,
      "stateMutability": "view",
      "type": "function"
    },
    {
      "constant": true,
      "inputs": [],
      "name": "totalTickets",
      "outputs": [
        {
          "name": "",
          "type": "uint32"
        }
      ],
      "payable": false,
      "stateMutability": "view",
      "type": "function"
    },
    {
      "constant": true,
      "inputs": [],
      "name": "ticketPerPerson",
      "outputs": [
        {
          "name": "",
          "type": "uint32"
        }
      ],
      "payable": false,
      "stateMutability": "view",
      "type": "function"
    },
    {
      "inputs": [
        {
          "name": "owner",
          "type": "address"
        },
        {
          "name": "pTicketPerPerson",
          "type": "uint32"
        },
        {
          "name": "pTotalTickets",
          "type": "uint32"
        },
        {
          "name": "pMinimumBid",
          "type": "uint32"
        },
        {
          "name": "pEndTime",
          "type": "uint256"
        }
      ],
      "payable": false,
      "stateMutability": "nonpayable",
      "type": "constructor"
    },
    {
      "anonymous": false,
      "inputs": [
        {
          "indexed": false,
          "name": "bidder",
          "type": "address"
        },
        {
          "indexed": false,
          "name": "bidAmount",
          "type": "uint32"
        },
        {
          "indexed": false,
          "name": "pTicketId",
          "type": "uint32"
        }
      ],
      "name": "BidCreated",
      "type": "event"
    },
    {
      "anonymous": false,
      "inputs": [
        {
          "indexed": false,
          "name": "bidder",
          "type": "address"
        },
        {
          "indexed": false,
          "name": "bidAmount",
          "type": "uint32"
        },
        {
          "indexed": false,
          "name": "pTicketId",
          "type": "uint32"
        }
      ],
      "name": "HighestBid",
      "type": "event"
    },
    {
      "anonymous": false,
      "inputs": [
        {
          "indexed": false,
          "name": "bidder",
          "type": "address"
        },
        {
          "indexed": false,
          "name": "bidAmount",
          "type": "uint32"
        },
        {
          "indexed": false,
          "name": "pTicketId",
          "type": "uint32"
        }
      ],
      "name": "TicketAlloted",
      "type": "event"
    },
    {
      "anonymous": false,
      "inputs": [
        {
          "indexed": false,
          "name": "bidder",
          "type": "address"
        },
        {
          "indexed": false,
          "name": "bidAmount",
          "type": "uint32"
        },
        {
          "indexed": false,
          "name": "errorCode",
          "type": "uint32"
        }
      ],
      "name": "BidError",
      "type": "event"
    },
    {
      "constant": false,
      "inputs": [
        {
          "name": "bidAmt",
          "type": "uint32"
        }
      ],
      "name": "bid",
      "outputs": [],
      "payable": false,
      "stateMutability": "nonpayable",
      "type": "function"
    },
    {
      "constant": true,
      "inputs": [
        {
          "name": "bidderAddress",
          "type": "address"
        }
      ],
      "name": "getBidFor",
      "outputs": [
        {
          "name": "",
          "type": "uint32"
        }
      ],
      "payable": false,
      "stateMutability": "view",
      "type": "function"
    },
    {
      "constant": true,
      "inputs": [
        {
          "name": "bidder",
          "type": "address"
        }
      ],
      "name": "getPayableBidsTotal",
      "outputs": [
        {
          "name": "bidTotal",
          "type": "uint32"
        }
      ],
      "payable": false,
      "stateMutability": "view",
      "type": "function"
    }
  ],
  "bytecode": "0x608060405260008054610100600160ff19909216821764ffffffff00191617909155805467ffffffff00000000191664020000000017905534801561004357600080fd5b5060405160a080610ce78339810160409081528151602083015191830151606084015160809094015160058054600160a060020a031916600160a060020a039094169390931790925560008054610e109093024201600255606860020a63ffffffff02199092166d010000000000000000000000000063ffffffff9485160217604860020a63ffffffff02191669010000000000000000009184169182021768ffffffff00000000001916650100000000009190910217608860020a63ffffffff021916710100000000000000000000000000000000009290931691909102919091178155610baf90819061013890396000f3006080604052600436106100fb5763ffffffff7c010000000000000000000000000000000000000000000000000000000060003504166310589fc48114610100578063166d6df61461013a5780631b5b687a1461018e5780631d445f80146101af57806322f3e2d4146101c45780633197cbb6146101ed57806351ffcab3146102145780635e3d3957146102345780635ec2c7bf146102495780637ee0e26d1461027a5780638547af301461028f57806391f90157146102a4578063ba7e663f146102b9578063bc42ee4d146102ce578063d3a86386146102f8578063d57bde791461030d578063dd11247e14610322578063e0c2a9cf14610337575b600080fd5b34801561010c57600080fd5b50610121600160a060020a036004351661034c565b6040805163ffffffff9092168252519081900360200190f35b34801561014657600080fd5b5061015e600160a060020a036004351660243561041d565b6040805163ffffffff9485168152929093166020830152600160a060020a03168183015290519081900360600190f35b34801561019a57600080fd5b50610121600160a060020a0360043516610471565b3480156101bb57600080fd5b506101216104a9565b3480156101d057600080fd5b506101d96104d2565b604080519115158252519081900360200190f35b3480156101f957600080fd5b506102026104db565b60408051918252519081900360200190f35b34801561022057600080fd5b5061023263ffffffff600435166104e1565b005b34801561024057600080fd5b50610121610795565b34801561025557600080fd5b5061025e6107ba565b60408051600160a060020a039092168252519081900360200190f35b34801561028657600080fd5b506101216107c9565b34801561029b57600080fd5b5061025e6107dd565b3480156102b057600080fd5b5061025e6107ec565b3480156102c557600080fd5b506101216107fb565b3480156102da57600080fd5b5061012163ffffffff60043516600160a060020a0360243516610810565b34801561030457600080fd5b50610121610833565b34801561031957600080fd5b50610121610854565b34801561032e57600080fd5b50610121610860565b34801561034357600080fd5b50610121610879565b600160a060020a0381166000908152600660205260408120805482908190811015610410575060009050805b825463ffffffff821610156104085784600160a060020a0316838263ffffffff168154811015156103a557fe5b600091825260209091200154680100000000000000009004600160a060020a0316141561040057828163ffffffff168154811015156103e057fe5b600091825260209091200154640100000000900463ffffffff1691909101905b600101610378565b819350610415565b600093505b505050919050565b60066020528160005260406000208181548110151561043857fe5b60009182526020909120015463ffffffff80821693506401000000008204169150680100000000000000009004600160a060020a031683565b6000805463ffffffff61010090910481168252600760209081526040808420600160a060020a03861685529091529091205416919050565b600054790100000000000000000000000000000000000000000000000000900463ffffffff1681565b60005460ff1681565b60025481565b60055460009033600160a060020a039081169116141561050057600080fd5b61050a3383610896565b905063ffffffff81161561056c5760408051600160a060020a033316815263ffffffff808516602083015283168183015290517f51ad84bb69799921c62768880e8de65b130a7ab82eb72800b2015dc8268832889181900360600190a1610791565b600080546101009081900463ffffffff908116835260076020908152604080852033600160a060020a0316808752908352818620805463ffffffff19168986169081179091556004805473ffffffffffffffffffffffffffffffffffffffff19168317905586547fffffffffffffff00000000ffffffffffffffffffffffffffffffffffffffffff16750100000000000000000000000000000000000000000082021796879055825191825292810192909252929093041682820152517f127f000d46779d2c9e7f3cb60484b8012453bd3cae4d1c406582145616a276d2916060908290030190a160008054600163ffffffff790100000000000000000000000000000000000000000000000000808404821683018216027fffffff00000000ffffffffffffffffffffffffffffffffffffffffffffffffff9093169290921790925590548116908316111561074e576001805463ffffffff191663ffffffff84811691909117918290556003805473ffffffffffffffffffffffffffffffffffffffff191633600160a060020a031690811790915560005460408051928352938316602083015261010090049091168183015290517f023e99227c295083884639a721870d7485b31a3713483a335229fffe727409b2916060908290030190a15b60015460005464010000000090910463ffffffff9081167901000000000000000000000000000000000000000000000000009092041610610791576107916109ae565b5050565b6000547501000000000000000000000000000000000000000000900463ffffffff1681565b600554600160a060020a031681565b600154640100000000900463ffffffff1681565b600454600160a060020a031681565b600354600160a060020a031681565b60005465010000000000900463ffffffff1681565b600760209081526000928352604080842090915290825290205463ffffffff1681565b60005471010000000000000000000000000000000000900463ffffffff1681565b60015463ffffffff1681565b6000546901000000000000000000900463ffffffff1681565b6000546d0100000000000000000000000000900463ffffffff1681565b60008054819060ff1615156108af576101f491506109a7565b60008363ffffffff161115806108e5575060005463ffffffff710100000000000000000000000000000000009091048116908416105b156108f357606491506109a7565b60008054600160a060020a038616825260066020526040909120546d010000000000000000000000000090910463ffffffff161161093457606691506109a7565b506000805463ffffffff61010090910481168252600760209081526040808420600160a060020a0388168552909152909120541680158061098057508263ffffffff168163ffffffff16105b1561098e57600091506109a7565b8263ffffffff168163ffffffff1611156109a757606791505b5092915050565b60038054600160a060020a039081166000818152600660209081526040808320815160608181018452855463ffffffff61010091829004811684526001805482168589019081528588019a8b5286548083018855968a52888a20955195909601805496519a518c1668010000000000000000027fffffffff0000000000000000000000000000000000000000ffffffffffffffff9b84166401000000000267ffffffff000000001997851663ffffffff1990991698909817969096169690961799909916939093179093559754955494548351969097168652938416928501929092529304168183015290517f88c27906462ca2b6d5795790f36cb46d3048e3625e18681dac98617434a4c44b929181900390910190a1600080546003805473ffffffffffffffffffffffffffffffffffffffff199081169091556001805463ffffffff19168155600480549092169091557fffffff0000000000000000ffffffffffffffffffffffffffffffffffffffffff6501000000000063ffffffff6101008086048216909401811690930264ffffffff0019909416939093178381048316600019018316840268ffffffff000000000019919091161716928390559104161515610b81576000805460ff191690555b5600a165627a7a72305820c6d88916ab610d9f7ac5438fc398e7899280f2eff55c41d33eb556657a71efb50029",
  "source": "pragma solidity ^0.4.11;\n\n\ncontract Auction {\n\n\tbool public isActive = true;\n\n\t//dont want external to modify this\t\n\tuint32 private ticketId = 1; \n    uint32 public balanceTikets;\n    uint32 public totalTickets;\n    uint32 public ticketPerPerson;\n    uint32 public minimumBid;\n    uint32 public lastBid;\n    uint32 public currentBidCount;\n    uint32 public highestBid;\n    //create this from constructor or some logic later\n    uint32 public maxBidsPerTicket = 2; \n    uint256 public endTime;\n\n\n\taddress public highestBidder;\n    address public lastBidder;\n    address public auctioneer;\n\n    //owner of each ticket\n    //stores history of allotment\n    mapping( address => Ticket[]) public allotedTickets;\n\n    //mapping bids for each ticketId  as : TicketId => (bidder => bidAmt)\n    //this will have history of all bids for a ticket\n    mapping( uint32 => mapping( address => uint32)) public bids;\n\n\n    event BidCreated(address bidder, uint32 bidAmount, uint32 pTicketId);\n    event HighestBid(address bidder, uint32 bidAmount, uint32 pTicketId);\n    event TicketAlloted(address bidder, uint32 bidAmount, uint32 pTicketId);\n    event BidError(address bidder, uint32 bidAmount, uint32 errorCode);\n\n    struct Ticket {\n       uint32 id;\n       uint32 pricePaid;\n       address owner;\n\n    }\n\n    /*\n    * Do not allow the auctioneer to bid\n    */\n    modifier noAuctioneer() {\n    \trequire(msg.sender != auctioneer);\n        _;\n\t}\n\n\t/**\n\t* Actually this can be done from Escrow\n\t* but for now this will do\n\t*/\n    modifier ownerOnly() {\n    \trequire(msg.sender == auctioneer);\n        _;\n\t}\n\n\n\t/**\n\t* Constructor. Initialized all vars to params\n\t*/\n\tfunction Auction (address owner, uint32 pTicketPerPerson, uint32 pTotalTickets, uint32 pMinimumBid, uint256 pEndTime ) public {\n\t\tauctioneer = owner;\n\t\tticketPerPerson = pTicketPerPerson;\n\t\ttotalTickets = pTotalTickets;\n\n\t\t// reduced each time on allotment\n\t\tbalanceTikets = pTotalTickets; \n\t\t\n\t\tendTime = now + (pEndTime * 1 hours );\n\t\tminimumBid = pMinimumBid;\n\t\t\n\t}\n\n\t\n\t/*\n\t* Bid for a Ticket in this auction. Following rules apply\n\t*  <p> bidder cannot be auctioneer\n\t*  <p> bidder should not have received max tickets per person\n\t*  <p> amount should be greater than last bid of this bidder\n\t*  <p> if number of bids for a ticket are reached. The max bidder get allocated \n\t*  the current ticket\n\t*/\n\tfunction bid(uint32 bidAmt) public \n\t        noAuctioneer {\n\n\t\tuint32 errCode = validBid(msg.sender, bidAmt);\n\t\tif( errCode != 0) {\n\t\t\tBidError(msg.sender, bidAmt, errCode);\n\n\t\t} else {\n\n\t\t\tbids[ticketId][msg.sender] = bidAmt;\n\t\t\tlastBidder = msg.sender;\n\t\t\tlastBid = bidAmt;\n\t\t\tBidCreated(msg.sender, bidAmt, ticketId);\n\t\t\t//increment the count to reach count of allocation\n\t\t\tcurrentBidCount++;\n\n\t\t\tif(bidAmt > highestBid) {\n\t\t\t\thighestBid = bidAmt;\n\t\t\t\thighestBidder = msg.sender;\n\t\t\t\tHighestBid(msg.sender, highestBid, ticketId);\n\t\t\t}\n\n\t\t\t//allocate ticket\n\t\t\tif(currentBidCount >= maxBidsPerTicket ) {\n\t\t\t\tallotAndReset();\n\t\t\t}\n\t\t}\n\t}\n\n\n\n\t/*\n\t* Assign current ticket to the last highest bidder\n\t* and reset all the values for next ticket\n\t*/\n\tfunction allotAndReset() internal {\n\n\t\t//evalute and check if bidderHasQuota call is required\n\t\tallotedTickets[highestBidder].push(Ticket ({id:ticketId, pricePaid: highestBid, owner:highestBidder}));\n\t\t\n\t\tTicketAlloted(highestBidder, highestBid, ticketId);\n\n\t\t//reset values that are per ticket\n\t\tticketId++;\n\t\tbalanceTikets--;\n\t\thighestBidder = 0x0;\n\t\thighestBid = 0;\n\t\tlastBid = 0;\n\t\tlastBidder = 0x0;\n\t\tcurrentBidCount = 0;\n\t\t//if all tickets are alloted disable auction\n\t\tif(balanceTikets == 0) {\n\t\t\tisActive = false;\n\t\t}\n\n\t}\n\n\n\t/*\n\t* returns an error code to indicate the status\n\t* 0 means success and everything is ok\n\t* TODO: document each error code at contract level\n\t*/\n\tfunction validBid(address bidder, uint32 amt) internal constant returns (uint32) {\n\n\t\t// auction has expired\n\t\tif(!isActive) {\n\t\t\treturn 500;\n\t\t}\n\n\t\t//accept bid only for values >= of minimum bid amt\n\t\tif( amt <= 0 || amt < minimumBid) {\n\t\t\treturn 100;\n\t\t}\n\n\t\t//ENALBE THIS:: check for auction expiry and disable for future requests\n\t\t//if(now < endTime) { isActive = false; return 101; }\n\n\t\t\n\t\tif(allotedTickets[bidder].length >= ticketPerPerson) {\n\t\t\treturn 102;\n\t\t}\n\n\t\t//in case the address has not bid earlier \n\t\t// the value of her address will be '0'\n\t\tuint32 lastBidByAddress = bids[ticketId][bidder];\n\n\t\tif(lastBidByAddress == 0 || lastBidByAddress < amt ) { //has not bid earlier\n\t\t\treturn 0;\n\t\t} else if(lastBidByAddress > amt) { // dont accept lower bids from same bidder\n\t\t\treturn 103;\n\t\t} \n\t}\n\n\t/**\n\t* get the bid amount for this bidder for current ticket.\n\t* Currently used only for tests from console\n\t*/\n\tfunction getBidFor(address bidderAddress) public constant returns (uint32) {\n\t\treturn bids[ticketId][bidderAddress];\n\t}\n\n    function getPayableBidsTotal(address bidder) public constant returns (uint32 bidTotal) {\n        \t\t\t//get the biider address\n\t\t\tTicket [] storage tkts = allotedTickets[bidder];\n\t\t\tif(tkts.length > 0) {\n\t\t\t\tuint32 totalAmt = 0;\n\t\t\t\tfor(uint32 i=0; i< tkts.length; i++) {\n\t\t\t\t\tif(tkts[i].owner ==  bidder)\n\t\t\t\t\t\ttotalAmt += tkts[i].pricePaid;\n\t\t\t\t}\n\t\t\t\treturn totalAmt;\n\t\t\t}\n\t\t\treturn 0;\n\n    }\n\n}",
  "sourcePath": "/Users/austinhwang/Documents/GitHub/datachain/contracts/Auction.sol",
  "compiler": {
    "name": "solc",
    "version": "0.4.23+commit.124ca40d.Emscripten.clang"
  },
  "schemaVersion": "2.0.0",
  "updatedAt": "2018-04-24T03:33:04.203Z"
}