{
  "contractName": "AuctionFactory",
  "abi": [
    {
      "constant": true,
      "inputs": [
        {
          "name": "",
          "type": "address"
        }
      ],
      "name": "auctions",
      "outputs": [
        {
          "name": "",
          "type": "address"
        }
      ],
      "payable": false,
      "stateMutability": "view",
      "type": "function"
    },
    {
      "constant": true,
      "inputs": [
        {
          "name": "",
          "type": "address"
        }
      ],
      "name": "escrows",
      "outputs": [
        {
          "name": "",
          "type": "address"
        }
      ],
      "payable": false,
      "stateMutability": "view",
      "type": "function"
    },
    {
      "constant": true,
      "inputs": [],
      "name": "version",
      "outputs": [
        {
          "name": "",
          "type": "uint256"
        }
      ],
      "payable": false,
      "stateMutability": "view",
      "type": "function"
    },
    {
      "inputs": [],
      "payable": false,
      "stateMutability": "nonpayable",
      "type": "constructor"
    },
    {
      "constant": false,
      "inputs": [
        {
          "name": "pTicketPerPerson",
          "type": "uint32"
        },
        {
          "name": "pTotalTickets",
          "type": "uint32"
        },
        {
          "name": "pMinimumBid",
          "type": "uint32"
        },
        {
          "name": "pEndTime",
          "type": "uint256"
        }
      ],
      "name": "createAuction",
      "outputs": [
        {
          "name": "auctionAddress",
          "type": "address"
        }
      ],
      "payable": false,
      "stateMutability": "nonpayable",
      "type": "function"
    },
    {
      "constant": false,
      "inputs": [
        {
          "name": "owner",
          "type": "address"
        }
      ],
      "name": "getAuction",
      "outputs": [
        {
          "name": "",
          "type": "address"
        }
      ],
      "payable": false,
      "stateMutability": "nonpayable",
      "type": "function"
    },
    {
      "constant": false,
      "inputs": [
        {
          "name": "auction",
          "type": "address"
        }
      ],
      "name": "getEscrow",
      "outputs": [
        {
          "name": "",
          "type": "address"
        }
      ],
      "payable": false,
      "stateMutability": "nonpayable",
      "type": "function"
    }
  ],
  "bytecode": "0x6080604052601060005534801561001557600080fd5b5033600160006101000a81548173ffffffffffffffffffffffffffffffffffffffff021916908373ffffffffffffffffffffffffffffffffffffffff160217905550612d0b806100666000396000f300608060405260043610610078576000357c0100000000000000000000000000000000000000000000000000000000900463ffffffff1680631d59410a1461007d578063477230b21461010057806354fd4d501461018357806379deae7b146101ae578063a26d494d14610231578063c26b55d2146102b4575b600080fd5b34801561008957600080fd5b506100be600480360381019080803573ffffffffffffffffffffffffffffffffffffffff169060200190929190505050610351565b604051808273ffffffffffffffffffffffffffffffffffffffff1673ffffffffffffffffffffffffffffffffffffffff16815260200191505060405180910390f35b34801561010c57600080fd5b50610141600480360381019080803573ffffffffffffffffffffffffffffffffffffffff169060200190929190505050610384565b604051808273ffffffffffffffffffffffffffffffffffffffff1673ffffffffffffffffffffffffffffffffffffffff16815260200191505060405180910390f35b34801561018f57600080fd5b506101986103b7565b6040518082815260200191505060405180910390f35b3480156101ba57600080fd5b506101ef600480360381019080803573ffffffffffffffffffffffffffffffffffffffff1690602001909291905050506103bd565b604051808273ffffffffffffffffffffffffffffffffffffffff1673ffffffffffffffffffffffffffffffffffffffff16815260200191505060405180910390f35b34801561023d57600080fd5b50610272600480360381019080803573ffffffffffffffffffffffffffffffffffffffff169060200190929190505050610426565b604051808273ffffffffffffffffffffffffffffffffffffffff1673ffffffffffffffffffffffffffffffffffffffff16815260200191505060405180910390f35b3480156102c057600080fd5b5061030f600480360381019080803563ffffffff169060200190929190803563ffffffff169060200190929190803563ffffffff1690602001909291908035906020019092919050505061048f565b604051808273ffffffffffffffffffffffffffffffffffffffff1673ffffffffffffffffffffffffffffffffffffffff16815260200191505060405180910390f35b60026020528060005260406000206000915054906101000a900473ffffffffffffffffffffffffffffffffffffffff1681565b60036020528060005260406000206000915054906101000a900473ffffffffffffffffffffffffffffffffffffffff1681565b60005481565b6000600260008373ffffffffffffffffffffffffffffffffffffffff1673ffffffffffffffffffffffffffffffffffffffff16815260200190815260200160002060009054906101000a900473ffffffffffffffffffffffffffffffffffffffff169050919050565b6000600360008373ffffffffffffffffffffffffffffffffffffffff1673ffffffffffffffffffffffffffffffffffffffff16815260200190815260200160002060009054906101000a900473ffffffffffffffffffffffffffffffffffffffff169050919050565b60008060008033925082888888886104a5610735565b808673ffffffffffffffffffffffffffffffffffffffff1673ffffffffffffffffffffffffffffffffffffffff1681526020018563ffffffff1663ffffffff1681526020018463ffffffff1663ffffffff1681526020018363ffffffff1663ffffffff16815260200182815260200195505050505050604051809103906000f080158015610537573d6000803e3d6000fd5b50915081600260008573ffffffffffffffffffffffffffffffffffffffff1673ffffffffffffffffffffffffffffffffffffffff16815260200190815260200160002060006101000a81548173ffffffffffffffffffffffffffffffffffffffff021916908373ffffffffffffffffffffffffffffffffffffffff16021790555082826105c2610745565b808373ffffffffffffffffffffffffffffffffffffffff1673ffffffffffffffffffffffffffffffffffffffff1681526020018273ffffffffffffffffffffffffffffffffffffffff1673ffffffffffffffffffffffffffffffffffffffff16815260200192505050604051809103906000f080158015610647573d6000803e3d6000fd5b50905080600360008473ffffffffffffffffffffffffffffffffffffffff1673ffffffffffffffffffffffffffffffffffffffff16815260200190815260200160002060006101000a81548173ffffffffffffffffffffffffffffffffffffffff021916908373ffffffffffffffffffffffffffffffffffffffff160217905550600260008473ffffffffffffffffffffffffffffffffffffffff1673ffffffffffffffffffffffffffffffffffffffff16815260200190815260200160002060009054906101000a900473ffffffffffffffffffffffffffffffffffffffff169350505050949350505050565b6040516115b78061075683390190565b604051610fd380611d0d833901905600608060405260016000806101000a81548160ff0219169083151502179055506001600060016101000a81548163ffffffff021916908363ffffffff1602179055506002600160046101000a81548163ffffffff021916908363ffffffff16021790555034801561006e57600080fd5b5060405160a0806115b7833981018060405281019080805190602001909291908051906020019092919080519060200190929190805190602001909291908051906020019092919050505084600560006101000a81548173ffffffffffffffffffffffffffffffffffffffff021916908373ffffffffffffffffffffffffffffffffffffffff160217905550836000600d6101000a81548163ffffffff021916908363ffffffff16021790555082600060096101000a81548163ffffffff021916908363ffffffff16021790555082600060056101000a81548163ffffffff021916908363ffffffff160217905550610e108102420160028190555081600060116101000a81548163ffffffff021916908363ffffffff16021790555050505050506114188061019f6000396000f3006080604052600436106100fc576000357c0100000000000000000000000000000000000000000000000000000000900463ffffffff16806310589fc414610101578063166d6df6146101645780631b5b687a146102175780631d445f801461027a57806322f3e2d4146102b15780633197cbb6146102e057806351ffcab31461030b5780635e3d39571461033e5780635ec2c7bf146103755780637ee0e26d146103cc5780638547af301461040357806391f901571461045a578063ba7e663f146104b1578063bc42ee4d146104e8578063d3a863861461055b578063d57bde7914610592578063dd11247e146105c9578063e0c2a9cf14610600575b600080fd5b34801561010d57600080fd5b50610142600480360381019080803573ffffffffffffffffffffffffffffffffffffffff169060200190929190505050610637565b604051808263ffffffff1663ffffffff16815260200191505060405180910390f35b34801561017057600080fd5b506101af600480360381019080803573ffffffffffffffffffffffffffffffffffffffff16906020019092919080359060200190929190505050610774565b604051808463ffffffff1663ffffffff1681526020018363ffffffff1663ffffffff1681526020018273ffffffffffffffffffffffffffffffffffffffff1673ffffffffffffffffffffffffffffffffffffffff168152602001935050505060405180910390f35b34801561022357600080fd5b50610258600480360381019080803573ffffffffffffffffffffffffffffffffffffffff1690602001909291905050506107f6565b604051808263ffffffff1663ffffffff16815260200191505060405180910390f35b34801561028657600080fd5b5061028f61087d565b604051808263ffffffff1663ffffffff16815260200191505060405180910390f35b3480156102bd57600080fd5b506102c6610893565b604051808215151515815260200191505060405180910390f35b3480156102ec57600080fd5b506102f56108a5565b6040518082815260200191505060405180910390f35b34801561031757600080fd5b5061033c600480360381019080803563ffffffff1690602001909291905050506108ab565b005b34801561034a57600080fd5b50610353610cfb565b604051808263ffffffff1663ffffffff16815260200191505060405180910390f35b34801561038157600080fd5b5061038a610d11565b604051808273ffffffffffffffffffffffffffffffffffffffff1673ffffffffffffffffffffffffffffffffffffffff16815260200191505060405180910390f35b3480156103d857600080fd5b506103e1610d37565b604051808263ffffffff1663ffffffff16815260200191505060405180910390f35b34801561040f57600080fd5b50610418610d4d565b604051808273ffffffffffffffffffffffffffffffffffffffff1673ffffffffffffffffffffffffffffffffffffffff16815260200191505060405180910390f35b34801561046657600080fd5b5061046f610d73565b604051808273ffffffffffffffffffffffffffffffffffffffff1673ffffffffffffffffffffffffffffffffffffffff16815260200191505060405180910390f35b3480156104bd57600080fd5b506104c6610d99565b604051808263ffffffff1663ffffffff16815260200191505060405180910390f35b3480156104f457600080fd5b50610539600480360381019080803563ffffffff169060200190929190803573ffffffffffffffffffffffffffffffffffffffff169060200190929190505050610daf565b604051808263ffffffff1663ffffffff16815260200191505060405180910390f35b34801561056757600080fd5b50610570610de1565b604051808263ffffffff1663ffffffff16815260200191505060405180910390f35b34801561059e57600080fd5b506105a7610df7565b604051808263ffffffff1663ffffffff16815260200191505060405180910390f35b3480156105d557600080fd5b506105de610e0d565b604051808263ffffffff1663ffffffff16815260200191505060405180910390f35b34801561060c57600080fd5b50610615610e23565b604051808263ffffffff1663ffffffff16815260200191505060405180910390f35b600080600080600660008673ffffffffffffffffffffffffffffffffffffffff1673ffffffffffffffffffffffffffffffffffffffff16815260200190815260200160002092506000838054905011156107675760009150600090505b82805490508163ffffffff16101561075f578473ffffffffffffffffffffffffffffffffffffffff16838263ffffffff168154811015156106d157fe5b9060005260206000200160000160089054906101000a900473ffffffffffffffffffffffffffffffffffffffff1673ffffffffffffffffffffffffffffffffffffffff16141561075257828163ffffffff1681548110151561072f57fe5b9060005260206000200160000160049054906101000a900463ffffffff16820191505b8080600101915050610694565b81935061076c565b600093505b505050919050565b60066020528160005260406000208181548110151561078f57fe5b90600052602060002001600091509150508060000160009054906101000a900463ffffffff16908060000160049054906101000a900463ffffffff16908060000160089054906101000a900473ffffffffffffffffffffffffffffffffffffffff16905083565b6000600760008060019054906101000a900463ffffffff1663ffffffff1663ffffffff16815260200190815260200160002060008373ffffffffffffffffffffffffffffffffffffffff1673ffffffffffffffffffffffffffffffffffffffff16815260200190815260200160002060009054906101000a900463ffffffff169050919050565b600060199054906101000a900463ffffffff1681565b6000809054906101000a900460ff1681565b60025481565b6000600560009054906101000a900473ffffffffffffffffffffffffffffffffffffffff1673ffffffffffffffffffffffffffffffffffffffff163373ffffffffffffffffffffffffffffffffffffffff161415151561090a57600080fd5b6109143383610e39565b905060008163ffffffff161415156109b6577f51ad84bb69799921c62768880e8de65b130a7ab82eb72800b2015dc826883288338383604051808473ffffffffffffffffffffffffffffffffffffffff1673ffffffffffffffffffffffffffffffffffffffff1681526020018363ffffffff1663ffffffff1681526020018263ffffffff1663ffffffff168152602001935050505060405180910390a1610cf7565b81600760008060019054906101000a900463ffffffff1663ffffffff1663ffffffff16815260200190815260200160002060003373ffffffffffffffffffffffffffffffffffffffff1673ffffffffffffffffffffffffffffffffffffffff16815260200190815260200160002060006101000a81548163ffffffff021916908363ffffffff16021790555033600460006101000a81548173ffffffffffffffffffffffffffffffffffffffff021916908373ffffffffffffffffffffffffffffffffffffffff16021790555081600060156101000a81548163ffffffff021916908363ffffffff1602179055507f127f000d46779d2c9e7f3cb60484b8012453bd3cae4d1c406582145616a276d23383600060019054906101000a900463ffffffff16604051808473ffffffffffffffffffffffffffffffffffffffff1673ffffffffffffffffffffffffffffffffffffffff1681526020018363ffffffff1663ffffffff1681526020018263ffffffff1663ffffffff168152602001935050505060405180910390a16000601981819054906101000a900463ffffffff168092919060010191906101000a81548163ffffffff021916908363ffffffff16021790555050600160009054906101000a900463ffffffff1663ffffffff168263ffffffff161115610cb45781600160006101000a81548163ffffffff021916908363ffffffff16021790555033600360006101000a81548173ffffffffffffffffffffffffffffffffffffffff021916908373ffffffffffffffffffffffffffffffffffffffff1602179055507f023e99227c295083884639a721870d7485b31a3713483a335229fffe727409b233600160009054906101000a900463ffffffff16600060019054906101000a900463ffffffff16604051808473ffffffffffffffffffffffffffffffffffffffff1673ffffffffffffffffffffffffffffffffffffffff1681526020018363ffffffff1663ffffffff1681526020018263ffffffff1663ffffffff168152602001935050505060405180910390a15b600160049054906101000a900463ffffffff1663ffffffff16600060199054906101000a900463ffffffff1663ffffffff16101515610cf657610cf5610fdb565b5b5b5050565b600060159054906101000a900463ffffffff1681565b600560009054906101000a900473ffffffffffffffffffffffffffffffffffffffff1681565b600160049054906101000a900463ffffffff1681565b600460009054906101000a900473ffffffffffffffffffffffffffffffffffffffff1681565b600360009054906101000a900473ffffffffffffffffffffffffffffffffffffffff1681565b600060059054906101000a900463ffffffff1681565b60076020528160005260406000206020528060005260406000206000915091509054906101000a900463ffffffff1681565b600060119054906101000a900463ffffffff1681565b600160009054906101000a900463ffffffff1681565b600060099054906101000a900463ffffffff1681565b6000600d9054906101000a900463ffffffff1681565b6000806000809054906101000a900460ff161515610e5b576101f49150610fd4565b60008363ffffffff16111580610e8e5750600060119054906101000a900463ffffffff1663ffffffff168363ffffffff16105b15610e9c5760649150610fd4565b6000600d9054906101000a900463ffffffff1663ffffffff16600660008673ffffffffffffffffffffffffffffffffffffffff1673ffffffffffffffffffffffffffffffffffffffff16815260200190815260200160002080549050101515610f085760669150610fd4565b600760008060019054906101000a900463ffffffff1663ffffffff1663ffffffff16815260200190815260200160002060008573ffffffffffffffffffffffffffffffffffffffff1673ffffffffffffffffffffffffffffffffffffffff16815260200190815260200160002060009054906101000a900463ffffffff16905060008163ffffffff161480610fa857508263ffffffff168163ffffffff16105b15610fb65760009150610fd4565b8263ffffffff168163ffffffff161115610fd35760679150610fd4565b5b5092915050565b60066000600360009054906101000a900473ffffffffffffffffffffffffffffffffffffffff1673ffffffffffffffffffffffffffffffffffffffff1673ffffffffffffffffffffffffffffffffffffffff168152602001908152602001600020606060405190810160405280600060019054906101000a900463ffffffff1663ffffffff168152602001600160009054906101000a900463ffffffff1663ffffffff168152602001600360009054906101000a900473ffffffffffffffffffffffffffffffffffffffff1673ffffffffffffffffffffffffffffffffffffffff1681525090806001815401808255809150509060018203906000526020600020016000909192909190915060008201518160000160006101000a81548163ffffffff021916908363ffffffff16021790555060208201518160000160046101000a81548163ffffffff021916908363ffffffff16021790555060408201518160000160086101000a81548173ffffffffffffffffffffffffffffffffffffffff021916908373ffffffffffffffffffffffffffffffffffffffff1602179055505050507f88c27906462ca2b6d5795790f36cb46d3048e3625e18681dac98617434a4c44b600360009054906101000a900473ffffffffffffffffffffffffffffffffffffffff16600160009054906101000a900463ffffffff16600060019054906101000a900463ffffffff16604051808473ffffffffffffffffffffffffffffffffffffffff1673ffffffffffffffffffffffffffffffffffffffff1681526020018363ffffffff1663ffffffff1681526020018263ffffffff1663ffffffff168152602001935050505060405180910390a16000600181819054906101000a900463ffffffff168092919060010191906101000a81548163ffffffff021916908363ffffffff160217905550506000600581819054906101000a900463ffffffff16809291906001900391906101000a81548163ffffffff021916908363ffffffff160217905550506000600360006101000a81548173ffffffffffffffffffffffffffffffffffffffff021916908373ffffffffffffffffffffffffffffffffffffffff1602179055506000600160006101000a81548163ffffffff021916908363ffffffff16021790555060008060156101000a81548163ffffffff021916908363ffffffff1602179055506000600460006101000a81548173ffffffffffffffffffffffffffffffffffffffff021916908373ffffffffffffffffffffffffffffffffffffffff16021790555060008060196101000a81548163ffffffff021916908363ffffffff16021790555060008060059054906101000a900463ffffffff1663ffffffff1614156113ea5760008060006101000a81548160ff0219169083151502179055505b5600a165627a7a72305820cf46375704f6c39ec1d9c754dd155175cbd610d32705fd288885e6077fc56e310029608060405234801561001057600080fd5b50604051604080610fd38339810180604052810190808051906020019092919080519060200190929190505050816000806101000a81548173ffffffffffffffffffffffffffffffffffffffff021916908373ffffffffffffffffffffffffffffffffffffffff16021790555080600160006101000a81548173ffffffffffffffffffffffffffffffffffffffff021916908373ffffffffffffffffffffffffffffffffffffffff1602179055505050610f04806100cf6000396000f300608060405260043610610083576000357c0100000000000000000000000000000000000000000000000000000000900463ffffffff1680633cecd719146100885780635a6c9e6d1461009f57806377e2f10b1461010c578063baac30391461014f578063e2982c2114610159578063f8c5079f146101cd578063fbf47a9a146101e4575b600080fd5b34801561009457600080fd5b5061009d61023f565b005b3480156100ab57600080fd5b506100ca6004803603810190808035906020019092919050505061037b565b604051808273ffffffffffffffffffffffffffffffffffffffff1673ffffffffffffffffffffffffffffffffffffffff16815260200191505060405180910390f35b34801561011857600080fd5b5061014d600480360381019080803573ffffffffffffffffffffffffffffffffffffffff1690602001909291905050506103b9565b005b610157610731565b005b34801561016557600080fd5b5061019a600480360381019080803573ffffffffffffffffffffffffffffffffffffffff169060200190929190505050610bcd565b60405180858152602001841515151581526020018315151515815260200182815260200194505050505060405180910390f35b3480156101d957600080fd5b506101e2610c17565b005b3480156101f057600080fd5b50610225600480360381019080803573ffffffffffffffffffffffffffffffffffffffff169060200190929190505050610d4e565b604051808215151515815260200191505060405180910390f35b6000809054906101000a900473ffffffffffffffffffffffffffffffffffffffff1673ffffffffffffffffffffffffffffffffffffffff163373ffffffffffffffffffffffffffffffffffffffff1614151561029a57600080fd5b600015156102a6610dfb565b15151415610341577f87e615831b9659008284796071882a6b839e6b9e50d1b4ebb418f9a9a37339336040518080602001828103825260298152602001807f556e72656c6561736564207469636b6574732065786973742e2043616e6e6f7481526020017f206465737472756374000000000000000000000000000000000000000000000081525060400191505060405180910390a1600080fd5b6000809054906101000a900473ffffffffffffffffffffffffffffffffffffffff1673ffffffffffffffffffffffffffffffffffffffff16ff5b60038181548110151561038a57fe5b906000526020600020016000915054906101000a900473ffffffffffffffffffffffffffffffffffffffff1681565b60008060009054906101000a900473ffffffffffffffffffffffffffffffffffffffff1673ffffffffffffffffffffffffffffffffffffffff163373ffffffffffffffffffffffffffffffffffffffff1614151561041657600080fd5b61041f82610d4e565b801561047e575060011515600260008473ffffffffffffffffffffffffffffffffffffffff1673ffffffffffffffffffffffffffffffffffffffff16815260200190815260200160002060010160019054906101000a900460ff161515145b15610728576000809054906101000a900473ffffffffffffffffffffffffffffffffffffffff1673ffffffffffffffffffffffffffffffffffffffff166108fc600260008573ffffffffffffffffffffffffffffffffffffffff1673ffffffffffffffffffffffffffffffffffffffff168152602001908152602001600020600001549081150290604051600060405180830381858888f1935050505090508015610675576000600260008473ffffffffffffffffffffffffffffffffffffffff1673ffffffffffffffffffffffffffffffffffffffff168152602001908152602001600020600001819055506001600260008473ffffffffffffffffffffffffffffffffffffffff1673ffffffffffffffffffffffffffffffffffffffff16815260200190815260200160002060010160006101000a81548160ff02191690831515021790555042600260008473ffffffffffffffffffffffffffffffffffffffff1673ffffffffffffffffffffffffffffffffffffffff168152602001908152602001600020600201819055507fa764d113e2e2c0ea8ba375fc4af4d51699ff50d8df3b165f150acd7046140bd182604051808273ffffffffffffffffffffffffffffffffffffffff1673ffffffffffffffffffffffffffffffffffffffff16815260200191505060405180910390a1610723565b7fe6a2603be188c2c3455276d0b91506694b05c85fd2359728b372d97cd67550db82600260008573ffffffffffffffffffffffffffffffffffffffff1673ffffffffffffffffffffffffffffffffffffffff16815260200190815260200160002060000154604051808373ffffffffffffffffffffffffffffffffffffffff1673ffffffffffffffffffffffffffffffffffffffff1681526020018281526020019250505060405180910390a15b61072d565b600080fd5b5050565b6000806000600160009054906101000a900473ffffffffffffffffffffffffffffffffffffffff1673ffffffffffffffffffffffffffffffffffffffff166322f3e2d46040518163ffffffff167c0100000000000000000000000000000000000000000000000000000000028152600401602060405180830381600087803b1580156107bc57600080fd5b505af11580156107d0573d6000803e3d6000fd5b505050506040513d60208110156107e657600080fd5b81019080805190602001909291905050501515610bc857600260003373ffffffffffffffffffffffffffffffffffffffff1673ffffffffffffffffffffffffffffffffffffffff16815260200190815260200160002092508260010160009054906101000a900460ff16158015610861575060008360000154145b15610b2657349150600160009054906101000a900473ffffffffffffffffffffffffffffffffffffffff1673ffffffffffffffffffffffffffffffffffffffff166310589fc4336040518263ffffffff167c0100000000000000000000000000000000000000000000000000000000028152600401808273ffffffffffffffffffffffffffffffffffffffff1673ffffffffffffffffffffffffffffffffffffffff168152602001915050602060405180830381600087803b15801561092657600080fd5b505af115801561093a573d6000803e3d6000fd5b505050506040513d602081101561095057600080fd5b8101908080519060200190929190505050905060008163ffffffff1611801561097e5750818163ffffffff16145b15610b1c576080604051908101604052803481526020016000151581526020016000151581526020016000815250600260003373ffffffffffffffffffffffffffffffffffffffff1673ffffffffffffffffffffffffffffffffffffffff1681526020019081526020016000206000820151816000015560208201518160010160006101000a81548160ff02191690831515021790555060408201518160010160016101000a81548160ff0219169083151502179055506060820151816002015590505060033390806001815401808255809150509060018203906000526020600020016000909192909190916101000a81548173ffffffffffffffffffffffffffffffffffffffff021916908373ffffffffffffffffffffffffffffffffffffffff160217905550507f178f1ca51ff9fb48abc63bc73ce1f207326d118d026f63d43a66be1715550545338460000154604051808373ffffffffffffffffffffffffffffffffffffffff1673ffffffffffffffffffffffffffffffffffffffff1681526020018281526020019250505060405180910390a1610b21565b600080fd5b610bc7565b7f133fa3eaed3030715238d6887febd227d6773b7b9410b44a70932bf3d231a0e133604051808273ffffffffffffffffffffffffffffffffffffffff1673ffffffffffffffffffffffffffffffffffffffff16815260200180602001828103825260168152602001807f4275796572206861732070616964206561726c696572000000000000000000008152506020019250505060405180910390a1600080fd5b5b505050565b60026020528060005260406000206000915090508060000154908060010160009054906101000a900460ff16908060010160019054906101000a900460ff16908060020154905084565b60011515610c2433610d4e565b1515148015610c86575060001515600260003373ffffffffffffffffffffffffffffffffffffffff1673ffffffffffffffffffffffffffffffffffffffff16815260200190815260200160002060010160019054906101000a900460ff161515145b1515610c8e57fe5b6001600260003373ffffffffffffffffffffffffffffffffffffffff1673ffffffffffffffffffffffffffffffffffffffff16815260200190815260200160002060010160016101000a81548160ff0219169083151502179055507fed36f02945d1d1014e57403638d8def0a870a7b3a63182d38eccae651fbde33e33604051808273ffffffffffffffffffffffffffffffffffffffff1673ffffffffffffffffffffffffffffffffffffffff16815260200191505060405180910390a1565b6000801515600260008473ffffffffffffffffffffffffffffffffffffffff1673ffffffffffffffffffffffffffffffffffffffff16815260200190815260200160002060010160009054906101000a900460ff161515148015610df457506000600260008473ffffffffffffffffffffffffffffffffffffffff1673ffffffffffffffffffffffffffffffffffffffff16815260200190815260200160002060000154115b9050919050565b60008060008091505b600380549050821015610ece5760026000600384815481101515610e2457fe5b9060005260206000200160009054906101000a900473ffffffffffffffffffffffffffffffffffffffff1673ffffffffffffffffffffffffffffffffffffffff1673ffffffffffffffffffffffffffffffffffffffff1681526020019081526020016000209050600015158160010160009054906101000a900460ff1615151480610eb3575060008160000154115b15610ec15760009250610ed3565b8180600101925050610e04565b600192505b5050905600a165627a7a72305820103af1c21f30006e842353692a1d70af5474c986548ac30438def1bf90c018ec0029a165627a7a72305820b9df93206b06655dcb1bad4960a5163f43422737182e287cbb36d613cf3d89aa0029",
  "source": "pragma solidity ^0.4.11;\n\nimport './Auction.sol';\nimport './AuctionEscrow.sol';\n\n\n/**\n* The usefullness of this is to be considered. As a new deployment is still required\n* for the factory when <pre>Auction</pre> changes. For now this is only a holder\n* for each user and her Product as auction. Does not provide the immutability\n* as the child object change will force changes to this factory\n*/\ncontract AuctionFactory {\n\n\t// This is dummy holder so that changes to Product are loaded along with factory\n\t// This number will match the migration number\n\tuint256 public version = 16;\n\n\t//restrict call to create produt later using this owner only\n\taddress factoryOwner;\n\n\t// contains the owner of an auction mapped to the hash of that auction\n\tmapping( address => address) public auctions;\n\tmapping( address => address) public escrows;\n\n\tfunction AuctionFactory() {\n\t\tfactoryOwner = msg.sender;\n\t}\n\t\n    function createAuction(uint32 pTicketPerPerson, uint32 pTotalTickets, uint32 pMinimumBid, uint256 pEndTime ) returns (address auctionAddress) {\n        \n        address owner = msg.sender;\n        Auction auction = new Auction(owner, pTicketPerPerson, pTotalTickets, pMinimumBid, pEndTime); \n        auctions[owner] = auction;\n        AuctionEscrow escrow = new AuctionEscrow(owner, auction);\n        escrows[auction] = escrow;\n\n\t\treturn auctions[owner];\n    \n    }\n\n    function getAuction(address owner) returns (address) {\n        return auctions[owner];\n    }\n\n    function getEscrow(address auction) returns (address) {\n        return escrows[auction];\n    }\n\n\n}\n\n",
  "sourcePath": "/Users/austinhwang/Documents/GitHub/react-eth-auction/contracts/AuctionFactory.sol",
  "compiler": {
    "name": "solc",
    "version": "0.4.23+commit.124ca40d.Emscripten.clang"
  },
  "schemaVersion": "2.0.0",
  "updatedAt": "2018-04-22T07:54:59.171Z"
}