{
  "contractName": "Auction",
  "abi": [
    {
      "constant": true,
      "inputs": [
        {
          "name": "",
          "type": "address"
        },
        {
          "name": "",
          "type": "uint256"
        }
      ],
      "name": "allotedTickets",
      "outputs": [
        {
          "name": "id",
          "type": "uint32"
        },
        {
          "name": "pricePaid",
          "type": "uint32"
        },
        {
          "name": "owner",
          "type": "address"
        }
      ],
      "payable": false,
      "stateMutability": "view",
      "type": "function"
    },
    {
      "constant": true,
      "inputs": [],
      "name": "currentBidCount",
      "outputs": [
        {
          "name": "",
          "type": "uint32"
        }
      ],
      "payable": false,
      "stateMutability": "view",
      "type": "function"
    },
    {
      "constant": true,
      "inputs": [],
      "name": "isActive",
      "outputs": [
        {
          "name": "",
          "type": "bool"
        }
      ],
      "payable": false,
      "stateMutability": "view",
      "type": "function"
    },
    {
      "constant": true,
      "inputs": [],
      "name": "endTime",
      "outputs": [
        {
          "name": "",
          "type": "uint256"
        }
      ],
      "payable": false,
      "stateMutability": "view",
      "type": "function"
    },
    {
      "constant": true,
      "inputs": [],
      "name": "lastBid",
      "outputs": [
        {
          "name": "",
          "type": "uint32"
        }
      ],
      "payable": false,
      "stateMutability": "view",
      "type": "function"
    },
    {
      "constant": true,
      "inputs": [],
      "name": "auctioneer",
      "outputs": [
        {
          "name": "",
          "type": "address"
        }
      ],
      "payable": false,
      "stateMutability": "view",
      "type": "function"
    },
    {
      "constant": true,
      "inputs": [],
      "name": "maxBidsPerTicket",
      "outputs": [
        {
          "name": "",
          "type": "uint32"
        }
      ],
      "payable": false,
      "stateMutability": "view",
      "type": "function"
    },
    {
      "constant": true,
      "inputs": [],
      "name": "lastBidder",
      "outputs": [
        {
          "name": "",
          "type": "address"
        }
      ],
      "payable": false,
      "stateMutability": "view",
      "type": "function"
    },
    {
      "constant": true,
      "inputs": [],
      "name": "highestBidder",
      "outputs": [
        {
          "name": "",
          "type": "address"
        }
      ],
      "payable": false,
      "stateMutability": "view",
      "type": "function"
    },
    {
      "constant": true,
      "inputs": [],
      "name": "balanceTikets",
      "outputs": [
        {
          "name": "",
          "type": "uint32"
        }
      ],
      "payable": false,
      "stateMutability": "view",
      "type": "function"
    },
    {
      "constant": true,
      "inputs": [
        {
          "name": "",
          "type": "uint32"
        },
        {
          "name": "",
          "type": "address"
        }
      ],
      "name": "bids",
      "outputs": [
        {
          "name": "",
          "type": "uint32"
        }
      ],
      "payable": false,
      "stateMutability": "view",
      "type": "function"
    },
    {
      "constant": true,
      "inputs": [],
      "name": "minimumBid",
      "outputs": [
        {
          "name": "",
          "type": "uint32"
        }
      ],
      "payable": false,
      "stateMutability": "view",
      "type": "function"
    },
    {
      "constant": true,
      "inputs": [],
      "name": "highestBid",
      "outputs": [
        {
          "name": "",
          "type": "uint32"
        }
      ],
      "payable": false,
      "stateMutability": "view",
      "type": "function"
    },
    {
      "constant": true,
      "inputs": [],
      "name": "totalTickets",
      "outputs": [
        {
          "name": "",
          "type": "uint32"
        }
      ],
      "payable": false,
      "stateMutability": "view",
      "type": "function"
    },
    {
      "constant": true,
      "inputs": [],
      "name": "ticketPerPerson",
      "outputs": [
        {
          "name": "",
          "type": "uint32"
        }
      ],
      "payable": false,
      "stateMutability": "view",
      "type": "function"
    },
    {
      "inputs": [
        {
          "name": "owner",
          "type": "address"
        },
        {
          "name": "pTicketPerPerson",
          "type": "uint32"
        },
        {
          "name": "pTotalTickets",
          "type": "uint32"
        },
        {
          "name": "pMinimumBid",
          "type": "uint32"
        },
        {
          "name": "pEndTime",
          "type": "uint256"
        }
      ],
      "payable": false,
      "stateMutability": "nonpayable",
      "type": "constructor"
    },
    {
      "anonymous": false,
      "inputs": [
        {
          "indexed": false,
          "name": "bidder",
          "type": "address"
        },
        {
          "indexed": false,
          "name": "bidAmount",
          "type": "uint32"
        },
        {
          "indexed": false,
          "name": "pTicketId",
          "type": "uint32"
        }
      ],
      "name": "BidCreated",
      "type": "event"
    },
    {
      "anonymous": false,
      "inputs": [
        {
          "indexed": false,
          "name": "bidder",
          "type": "address"
        },
        {
          "indexed": false,
          "name": "bidAmount",
          "type": "uint32"
        },
        {
          "indexed": false,
          "name": "pTicketId",
          "type": "uint32"
        }
      ],
      "name": "HighestBid",
      "type": "event"
    },
    {
      "anonymous": false,
      "inputs": [
        {
          "indexed": false,
          "name": "bidder",
          "type": "address"
        },
        {
          "indexed": false,
          "name": "bidAmount",
          "type": "uint32"
        },
        {
          "indexed": false,
          "name": "pTicketId",
          "type": "uint32"
        }
      ],
      "name": "TicketAlloted",
      "type": "event"
    },
    {
      "anonymous": false,
      "inputs": [
        {
          "indexed": false,
          "name": "bidder",
          "type": "address"
        },
        {
          "indexed": false,
          "name": "bidAmount",
          "type": "uint32"
        },
        {
          "indexed": false,
          "name": "errorCode",
          "type": "uint32"
        }
      ],
      "name": "BidError",
      "type": "event"
    },
    {
      "constant": false,
      "inputs": [
        {
          "name": "bidAmt",
          "type": "uint32"
        }
      ],
      "name": "bid",
      "outputs": [],
      "payable": false,
      "stateMutability": "nonpayable",
      "type": "function"
    },
    {
      "constant": true,
      "inputs": [
        {
          "name": "bidderAddress",
          "type": "address"
        }
      ],
      "name": "getBidFor",
      "outputs": [
        {
          "name": "",
          "type": "uint32"
        }
      ],
      "payable": false,
      "stateMutability": "view",
      "type": "function"
    },
    {
      "constant": true,
      "inputs": [
        {
          "name": "bidder",
          "type": "address"
        }
      ],
      "name": "getPayableBidsTotal",
      "outputs": [
        {
          "name": "bidTotal",
          "type": "uint32"
        }
      ],
      "payable": false,
      "stateMutability": "view",
      "type": "function"
    }
  ],
  "bytecode": "0x608060405260016000806101000a81548160ff0219169083151502179055506001600060016101000a81548163ffffffff021916908363ffffffff1602179055506002600160046101000a81548163ffffffff021916908363ffffffff16021790555034801561006e57600080fd5b5060405160a0806115b7833981018060405281019080805190602001909291908051906020019092919080519060200190929190805190602001909291908051906020019092919050505084600560006101000a81548173ffffffffffffffffffffffffffffffffffffffff021916908373ffffffffffffffffffffffffffffffffffffffff160217905550836000600d6101000a81548163ffffffff021916908363ffffffff16021790555082600060096101000a81548163ffffffff021916908363ffffffff16021790555082600060056101000a81548163ffffffff021916908363ffffffff160217905550610e108102420160028190555081600060116101000a81548163ffffffff021916908363ffffffff16021790555050505050506114188061019f6000396000f3006080604052600436106100fc576000357c0100000000000000000000000000000000000000000000000000000000900463ffffffff16806310589fc414610101578063166d6df6146101645780631b5b687a146102175780631d445f801461027a57806322f3e2d4146102b15780633197cbb6146102e057806351ffcab31461030b5780635e3d39571461033e5780635ec2c7bf146103755780637ee0e26d146103cc5780638547af301461040357806391f901571461045a578063ba7e663f146104b1578063bc42ee4d146104e8578063d3a863861461055b578063d57bde7914610592578063dd11247e146105c9578063e0c2a9cf14610600575b600080fd5b34801561010d57600080fd5b50610142600480360381019080803573ffffffffffffffffffffffffffffffffffffffff169060200190929190505050610637565b604051808263ffffffff1663ffffffff16815260200191505060405180910390f35b34801561017057600080fd5b506101af600480360381019080803573ffffffffffffffffffffffffffffffffffffffff16906020019092919080359060200190929190505050610774565b604051808463ffffffff1663ffffffff1681526020018363ffffffff1663ffffffff1681526020018273ffffffffffffffffffffffffffffffffffffffff1673ffffffffffffffffffffffffffffffffffffffff168152602001935050505060405180910390f35b34801561022357600080fd5b50610258600480360381019080803573ffffffffffffffffffffffffffffffffffffffff1690602001909291905050506107f6565b604051808263ffffffff1663ffffffff16815260200191505060405180910390f35b34801561028657600080fd5b5061028f61087d565b604051808263ffffffff1663ffffffff16815260200191505060405180910390f35b3480156102bd57600080fd5b506102c6610893565b604051808215151515815260200191505060405180910390f35b3480156102ec57600080fd5b506102f56108a5565b6040518082815260200191505060405180910390f35b34801561031757600080fd5b5061033c600480360381019080803563ffffffff1690602001909291905050506108ab565b005b34801561034a57600080fd5b50610353610cfb565b604051808263ffffffff1663ffffffff16815260200191505060405180910390f35b34801561038157600080fd5b5061038a610d11565b604051808273ffffffffffffffffffffffffffffffffffffffff1673ffffffffffffffffffffffffffffffffffffffff16815260200191505060405180910390f35b3480156103d857600080fd5b506103e1610d37565b604051808263ffffffff1663ffffffff16815260200191505060405180910390f35b34801561040f57600080fd5b50610418610d4d565b604051808273ffffffffffffffffffffffffffffffffffffffff1673ffffffffffffffffffffffffffffffffffffffff16815260200191505060405180910390f35b34801561046657600080fd5b5061046f610d73565b604051808273ffffffffffffffffffffffffffffffffffffffff1673ffffffffffffffffffffffffffffffffffffffff16815260200191505060405180910390f35b3480156104bd57600080fd5b506104c6610d99565b604051808263ffffffff1663ffffffff16815260200191505060405180910390f35b3480156104f457600080fd5b50610539600480360381019080803563ffffffff169060200190929190803573ffffffffffffffffffffffffffffffffffffffff169060200190929190505050610daf565b604051808263ffffffff1663ffffffff16815260200191505060405180910390f35b34801561056757600080fd5b50610570610de1565b604051808263ffffffff1663ffffffff16815260200191505060405180910390f35b34801561059e57600080fd5b506105a7610df7565b604051808263ffffffff1663ffffffff16815260200191505060405180910390f35b3480156105d557600080fd5b506105de610e0d565b604051808263ffffffff1663ffffffff16815260200191505060405180910390f35b34801561060c57600080fd5b50610615610e23565b604051808263ffffffff1663ffffffff16815260200191505060405180910390f35b600080600080600660008673ffffffffffffffffffffffffffffffffffffffff1673ffffffffffffffffffffffffffffffffffffffff16815260200190815260200160002092506000838054905011156107675760009150600090505b82805490508163ffffffff16101561075f578473ffffffffffffffffffffffffffffffffffffffff16838263ffffffff168154811015156106d157fe5b9060005260206000200160000160089054906101000a900473ffffffffffffffffffffffffffffffffffffffff1673ffffffffffffffffffffffffffffffffffffffff16141561075257828163ffffffff1681548110151561072f57fe5b9060005260206000200160000160049054906101000a900463ffffffff16820191505b8080600101915050610694565b81935061076c565b600093505b505050919050565b60066020528160005260406000208181548110151561078f57fe5b90600052602060002001600091509150508060000160009054906101000a900463ffffffff16908060000160049054906101000a900463ffffffff16908060000160089054906101000a900473ffffffffffffffffffffffffffffffffffffffff16905083565b6000600760008060019054906101000a900463ffffffff1663ffffffff1663ffffffff16815260200190815260200160002060008373ffffffffffffffffffffffffffffffffffffffff1673ffffffffffffffffffffffffffffffffffffffff16815260200190815260200160002060009054906101000a900463ffffffff169050919050565b600060199054906101000a900463ffffffff1681565b6000809054906101000a900460ff1681565b60025481565b6000600560009054906101000a900473ffffffffffffffffffffffffffffffffffffffff1673ffffffffffffffffffffffffffffffffffffffff163373ffffffffffffffffffffffffffffffffffffffff161415151561090a57600080fd5b6109143383610e39565b905060008163ffffffff161415156109b6577f51ad84bb69799921c62768880e8de65b130a7ab82eb72800b2015dc826883288338383604051808473ffffffffffffffffffffffffffffffffffffffff1673ffffffffffffffffffffffffffffffffffffffff1681526020018363ffffffff1663ffffffff1681526020018263ffffffff1663ffffffff168152602001935050505060405180910390a1610cf7565b81600760008060019054906101000a900463ffffffff1663ffffffff1663ffffffff16815260200190815260200160002060003373ffffffffffffffffffffffffffffffffffffffff1673ffffffffffffffffffffffffffffffffffffffff16815260200190815260200160002060006101000a81548163ffffffff021916908363ffffffff16021790555033600460006101000a81548173ffffffffffffffffffffffffffffffffffffffff021916908373ffffffffffffffffffffffffffffffffffffffff16021790555081600060156101000a81548163ffffffff021916908363ffffffff1602179055507f127f000d46779d2c9e7f3cb60484b8012453bd3cae4d1c406582145616a276d23383600060019054906101000a900463ffffffff16604051808473ffffffffffffffffffffffffffffffffffffffff1673ffffffffffffffffffffffffffffffffffffffff1681526020018363ffffffff1663ffffffff1681526020018263ffffffff1663ffffffff168152602001935050505060405180910390a16000601981819054906101000a900463ffffffff168092919060010191906101000a81548163ffffffff021916908363ffffffff16021790555050600160009054906101000a900463ffffffff1663ffffffff168263ffffffff161115610cb45781600160006101000a81548163ffffffff021916908363ffffffff16021790555033600360006101000a81548173ffffffffffffffffffffffffffffffffffffffff021916908373ffffffffffffffffffffffffffffffffffffffff1602179055507f023e99227c295083884639a721870d7485b31a3713483a335229fffe727409b233600160009054906101000a900463ffffffff16600060019054906101000a900463ffffffff16604051808473ffffffffffffffffffffffffffffffffffffffff1673ffffffffffffffffffffffffffffffffffffffff1681526020018363ffffffff1663ffffffff1681526020018263ffffffff1663ffffffff168152602001935050505060405180910390a15b600160049054906101000a900463ffffffff1663ffffffff16600060199054906101000a900463ffffffff1663ffffffff16101515610cf657610cf5610fdb565b5b5b5050565b600060159054906101000a900463ffffffff1681565b600560009054906101000a900473ffffffffffffffffffffffffffffffffffffffff1681565b600160049054906101000a900463ffffffff1681565b600460009054906101000a900473ffffffffffffffffffffffffffffffffffffffff1681565b600360009054906101000a900473ffffffffffffffffffffffffffffffffffffffff1681565b600060059054906101000a900463ffffffff1681565b60076020528160005260406000206020528060005260406000206000915091509054906101000a900463ffffffff1681565b600060119054906101000a900463ffffffff1681565b600160009054906101000a900463ffffffff1681565b600060099054906101000a900463ffffffff1681565b6000600d9054906101000a900463ffffffff1681565b6000806000809054906101000a900460ff161515610e5b576101f49150610fd4565b60008363ffffffff16111580610e8e5750600060119054906101000a900463ffffffff1663ffffffff168363ffffffff16105b15610e9c5760649150610fd4565b6000600d9054906101000a900463ffffffff1663ffffffff16600660008673ffffffffffffffffffffffffffffffffffffffff1673ffffffffffffffffffffffffffffffffffffffff16815260200190815260200160002080549050101515610f085760669150610fd4565b600760008060019054906101000a900463ffffffff1663ffffffff1663ffffffff16815260200190815260200160002060008573ffffffffffffffffffffffffffffffffffffffff1673ffffffffffffffffffffffffffffffffffffffff16815260200190815260200160002060009054906101000a900463ffffffff16905060008163ffffffff161480610fa857508263ffffffff168163ffffffff16105b15610fb65760009150610fd4565b8263ffffffff168163ffffffff161115610fd35760679150610fd4565b5b5092915050565b60066000600360009054906101000a900473ffffffffffffffffffffffffffffffffffffffff1673ffffffffffffffffffffffffffffffffffffffff1673ffffffffffffffffffffffffffffffffffffffff168152602001908152602001600020606060405190810160405280600060019054906101000a900463ffffffff1663ffffffff168152602001600160009054906101000a900463ffffffff1663ffffffff168152602001600360009054906101000a900473ffffffffffffffffffffffffffffffffffffffff1673ffffffffffffffffffffffffffffffffffffffff1681525090806001815401808255809150509060018203906000526020600020016000909192909190915060008201518160000160006101000a81548163ffffffff021916908363ffffffff16021790555060208201518160000160046101000a81548163ffffffff021916908363ffffffff16021790555060408201518160000160086101000a81548173ffffffffffffffffffffffffffffffffffffffff021916908373ffffffffffffffffffffffffffffffffffffffff1602179055505050507f88c27906462ca2b6d5795790f36cb46d3048e3625e18681dac98617434a4c44b600360009054906101000a900473ffffffffffffffffffffffffffffffffffffffff16600160009054906101000a900463ffffffff16600060019054906101000a900463ffffffff16604051808473ffffffffffffffffffffffffffffffffffffffff1673ffffffffffffffffffffffffffffffffffffffff1681526020018363ffffffff1663ffffffff1681526020018263ffffffff1663ffffffff168152602001935050505060405180910390a16000600181819054906101000a900463ffffffff168092919060010191906101000a81548163ffffffff021916908363ffffffff160217905550506000600581819054906101000a900463ffffffff16809291906001900391906101000a81548163ffffffff021916908363ffffffff160217905550506000600360006101000a81548173ffffffffffffffffffffffffffffffffffffffff021916908373ffffffffffffffffffffffffffffffffffffffff1602179055506000600160006101000a81548163ffffffff021916908363ffffffff16021790555060008060156101000a81548163ffffffff021916908363ffffffff1602179055506000600460006101000a81548173ffffffffffffffffffffffffffffffffffffffff021916908373ffffffffffffffffffffffffffffffffffffffff16021790555060008060196101000a81548163ffffffff021916908363ffffffff16021790555060008060059054906101000a900463ffffffff1663ffffffff1614156113ea5760008060006101000a81548160ff0219169083151502179055505b5600a165627a7a72305820cf46375704f6c39ec1d9c754dd155175cbd610d32705fd288885e6077fc56e310029",
  "source": "pragma solidity ^0.4.11;\n\n\ncontract Auction {\n\n\tbool public isActive = true;\n\n\t//dont want external to modify this\t\n\tuint32 private ticketId = 1; \n    uint32 public balanceTikets;\n    uint32 public totalTickets;\n    uint32 public ticketPerPerson;\n    uint32 public minimumBid;\n    uint32 public lastBid;\n    uint32 public currentBidCount;\n    uint32 public highestBid;\n    //create this from constructor or some logic later\n    uint32 public maxBidsPerTicket = 2; \n    uint256 public endTime;\n\n\n\taddress public highestBidder;\n    address public lastBidder;\n    address public auctioneer;\n\n    //owner of each ticket\n    //stores history of allotment\n    mapping( address => Ticket[]) public allotedTickets;\n\n    //mapping bids for each ticketId  as : TicketId => (bidder => bidAmt)\n    //this will have history of all bids for a ticket\n    mapping( uint32 => mapping( address => uint32)) public bids;\n\n\n    event BidCreated(address bidder, uint32 bidAmount, uint32 pTicketId);\n    event HighestBid(address bidder, uint32 bidAmount, uint32 pTicketId);\n    event TicketAlloted(address bidder, uint32 bidAmount, uint32 pTicketId);\n    event BidError(address bidder, uint32 bidAmount, uint32 errorCode);\n\n    struct Ticket {\n       uint32 id;\n       uint32 pricePaid;\n       address owner;\n\n    }\n\n    /*\n    * Do not allow the auctioneer to bid\n    */\n    modifier noAuctioneer() {\n    \trequire(msg.sender != auctioneer);\n        _;\n\t}\n\n\t/**\n\t* Actually this can be done from Escrow\n\t* but for now this will do\n\t*/\n    modifier ownerOnly() {\n    \trequire(msg.sender == auctioneer);\n        _;\n\t}\n\n\n\t/**\n\t* Constructor. Initialized all vars to params\n\t*/\n\tfunction Auction (address owner, uint32 pTicketPerPerson, uint32 pTotalTickets, uint32 pMinimumBid, uint256 pEndTime ) public {\n\t\tauctioneer = owner;\n\t\tticketPerPerson = pTicketPerPerson;\n\t\ttotalTickets = pTotalTickets;\n\n\t\t// reduced each time on allotment\n\t\tbalanceTikets = pTotalTickets; \n\t\t\n\t\tendTime = now + (pEndTime * 1 hours );\n\t\tminimumBid = pMinimumBid;\n\t\t\n\t}\n\n\t\n\t/*\n\t* Bid for a Ticket in this auction. Following rules apply\n\t*  <p> bidder cannot be auctioneer\n\t*  <p> bidder should not have received max tickets per person\n\t*  <p> amount should be greater than last bid of this bidder\n\t*  <p> if number of bids for a ticket are reached. The max bidder get allocated \n\t*  the current ticket\n\t*/\n\tfunction bid(uint32 bidAmt) public \n\t        noAuctioneer {\n\n\t\tuint32 errCode = validBid(msg.sender, bidAmt);\n\t\tif( errCode != 0) {\n\t\t\tBidError(msg.sender, bidAmt, errCode);\n\n\t\t} else {\n\n\t\t\tbids[ticketId][msg.sender] = bidAmt;\n\t\t\tlastBidder = msg.sender;\n\t\t\tlastBid = bidAmt;\n\t\t\tBidCreated(msg.sender, bidAmt, ticketId);\n\t\t\t//increment the count to reach count of allocation\n\t\t\tcurrentBidCount++;\n\n\t\t\tif(bidAmt > highestBid) {\n\t\t\t\thighestBid = bidAmt;\n\t\t\t\thighestBidder = msg.sender;\n\t\t\t\tHighestBid(msg.sender, highestBid, ticketId);\n\t\t\t}\n\n\t\t\t//allocate ticket\n\t\t\tif(currentBidCount >= maxBidsPerTicket ) {\n\t\t\t\tallotAndReset();\n\t\t\t}\n\t\t}\n\t}\n\n\n\n\t/*\n\t* Assign current ticket to the last highest bidder\n\t* and reset all the values for next ticket\n\t*/\n\tfunction allotAndReset() internal {\n\n\t\t//evalute and check if bidderHasQuota call is required\n\t\tallotedTickets[highestBidder].push(Ticket ({id:ticketId, pricePaid: highestBid, owner:highestBidder}));\n\t\t\n\t\tTicketAlloted(highestBidder, highestBid, ticketId);\n\n\t\t//reset values that are per ticket\n\t\tticketId++;\n\t\tbalanceTikets--;\n\t\thighestBidder = 0x0;\n\t\thighestBid = 0;\n\t\tlastBid = 0;\n\t\tlastBidder = 0x0;\n\t\tcurrentBidCount = 0;\n\t\t//if all tickets are alloted disable auction\n\t\tif(balanceTikets == 0) {\n\t\t\tisActive = false;\n\t\t}\n\n\t}\n\n\n\t/*\n\t* returns an error code to indicate the status\n\t* 0 means success and everything is ok\n\t* TODO: document each error code at contract level\n\t*/\n\tfunction validBid(address bidder, uint32 amt) internal constant returns (uint32) {\n\n\t\t// auction has expired\n\t\tif(!isActive) {\n\t\t\treturn 500;\n\t\t}\n\n\t\t//accept bid only for values >= of minimum bid amt\n\t\tif( amt <= 0 || amt < minimumBid) {\n\t\t\treturn 100;\n\t\t}\n\n\t\t//ENALBE THIS:: check for auction expiry and disable for future requests\n\t\t//if(now < endTime) { isActive = false; return 101; }\n\n\t\t\n\t\tif(allotedTickets[bidder].length >= ticketPerPerson) {\n\t\t\treturn 102;\n\t\t}\n\n\t\t//in case the address has not bid earlier \n\t\t// the value of her address will be '0'\n\t\tuint32 lastBidByAddress = bids[ticketId][bidder];\n\n\t\tif(lastBidByAddress == 0 || lastBidByAddress < amt ) { //has not bid earlier\n\t\t\treturn 0;\n\t\t} else if(lastBidByAddress > amt) { // dont accept lower bids from same bidder\n\t\t\treturn 103;\n\t\t} \n\t}\n\n\t/**\n\t* get the bid amount for this bidder for current ticket.\n\t* Currently used only for tests from console\n\t*/\n\tfunction getBidFor(address bidderAddress) public constant returns (uint32) {\n\t\treturn bids[ticketId][bidderAddress];\n\t}\n\n    function getPayableBidsTotal(address bidder) public constant returns (uint32 bidTotal) {\n        \t\t\t//get the biider address\n\t\t\tTicket [] storage tkts = allotedTickets[bidder];\n\t\t\tif(tkts.length > 0) {\n\t\t\t\tuint32 totalAmt = 0;\n\t\t\t\tfor(uint32 i=0; i< tkts.length; i++) {\n\t\t\t\t\tif(tkts[i].owner ==  bidder)\n\t\t\t\t\t\ttotalAmt += tkts[i].pricePaid;\n\t\t\t\t}\n\t\t\t\treturn totalAmt;\n\t\t\t}\n\t\t\treturn 0;\n\n    }\n\n}",
  "sourcePath": "/Users/austinhwang/Documents/GitHub/react-eth-auction/contracts/Auction.sol",
  "compiler": {
    "name": "solc",
    "version": "0.4.23+commit.124ca40d.Emscripten.clang"
  },
  "schemaVersion": "2.0.0",
  "updatedAt": "2018-04-22T07:54:59.168Z"
}