{
  "contractName": "AuctionFactory",
  "abi": [
    {
      "constant": true,
      "inputs": [],
      "name": "version",
      "outputs": [
        {
          "name": "",
          "type": "uint256"
        }
      ],
      "payable": false,
      "stateMutability": "view",
      "type": "function"
    },
    {
      "constant": true,
      "inputs": [
        {
          "name": "",
          "type": "uint256"
        }
      ],
      "name": "auctions",
      "outputs": [
        {
          "name": "",
          "type": "address"
        }
      ],
      "payable": false,
      "stateMutability": "view",
      "type": "function"
    },
    {
      "inputs": [],
      "payable": false,
      "stateMutability": "nonpayable",
      "type": "constructor"
    },
    {
      "constant": false,
      "inputs": [
        {
          "name": "biddingTime",
          "type": "uint256"
        },
        {
          "name": "beneficiary",
          "type": "address"
        },
        {
          "name": "collectionPeriod",
          "type": "uint256"
        },
        {
          "name": "sellerHash",
          "type": "bytes32"
        },
        {
          "name": "metadata",
          "type": "string"
        }
      ],
      "name": "createAuction",
      "outputs": [
        {
          "name": "auctionAddress",
          "type": "address"
        }
      ],
      "payable": false,
      "stateMutability": "nonpayable",
      "type": "function"
    }
  ],
  "bytecode": "0x6080604052601060005534801561001557600080fd5b5060018054600160a060020a03191633600160a060020a0316179055610b28806100406000396000f3006080604052600436106100565763ffffffff7c010000000000000000000000000000000000000000000000000000000060003504166354fd4d50811461005b578063571a26a014610082578063e82bbc28146100c3575b600080fd5b34801561006757600080fd5b50610070610144565b60408051918252519081900360200190f35b34801561008e57600080fd5b5061009a60043561014a565b6040805173ffffffffffffffffffffffffffffffffffffffff9092168252519081900360200190f35b3480156100cf57600080fd5b50604080516020600460843581810135601f810184900484028501840190955284845261009a948235946024803573ffffffffffffffffffffffffffffffffffffffff169560443595606435953695919460a494909391019190819084018382808284375094975061017f9650505050505050565b60005481565b600280548290811061015857fe5b60009182526020909120015473ffffffffffffffffffffffffffffffffffffffff16905081565b6000338187878787876101906102c2565b85815273ffffffffffffffffffffffffffffffffffffffff8516602080830191909152604082018590526060820184905260a0608083018181528451918401919091528351909160c08401919085019080838360005b838110156101fe5781810151838201526020016101e6565b50505050905090810190601f16801561022b5780820380516001836020036101000a031916815260200191505b509650505050505050604051809103906000f080158015610250573d6000803e3d6000fd5b50600280546001810182556000919091527f405787fa12a823e0f2b7631cc41b3ba8828b3321ca811111fa75cd3aa3bb5ace01805473ffffffffffffffffffffffffffffffffffffffff191673ffffffffffffffffffffffffffffffffffffffff831617905598975050505050505050565b60405161082a806102d3833901905600608060405234801561001057600080fd5b5060405161082a38038061082a83398101604090815281516020830151918301516060840151608085015192949192909101600085101561005057600080fd5b600160a060020a038416151561006557600080fd5b60008054600160a060020a031916600160a060020a03861617905542850160015580516100999060029060208401906100b6565b50506005805460ff19169055600791909155600655506101519050565b828054600181600116156101000203166002900490600052602060002090601f016020900481019282601f106100f757805160ff1916838001178555610124565b82800160010185558215610124579182015b82811115610124578251825591602001919060010190610109565b50610130929150610134565b5090565b61014e91905b80821115610130576000815560010161013a565b90565b6106ca806101606000396000f3006080604052600436106100c45763ffffffff7c01000000000000000000000000000000000000000000000000000000006000350416631998aeef81146100c95780632a24f46c146100d357806338af3eed146100fa578063392f37e91461012b5780633aea10a6146101b557806391f90157146101de578063b8ebf926146101f3578063c19d93fb14610208578063c885bc5814610241578063d57bde7914610256578063dc4e472c1461026b578063fe67a54b14610283578063fed39eed14610298575b600080fd5b6100d16102ad565b005b3480156100df57600080fd5b506100e8610371565b60408051918252519081900360200190f35b34801561010657600080fd5b5061010f610377565b60408051600160a060020a039092168252519081900360200190f35b34801561013757600080fd5b50610140610386565b6040805160208082528351818301528351919283929083019185019080838360005b8381101561017a578181015183820152602001610162565b50505050905090810190601f1680156101a75780820380516001836020036101000a031916815260200191505b509250505060405180910390f35b3480156101c157600080fd5b506101ca610411565b604080519115158252519081900360200190f35b3480156101ea57600080fd5b5061010f6104b6565b3480156101ff57600080fd5b506100e86104c5565b34801561021457600080fd5b5061021d6104cb565b6040518082600381111561022d57fe5b60ff16815260200191505060405180910390f35b34801561024d57600080fd5b506100d16104d4565b34801561026257600080fd5b506100e8610548565b34801561027757600080fd5b506101ca60043561054e565b34801561028f57600080fd5b506100d16105b4565b3480156102a457600080fd5b506101ca610642565b6001544211156102bc57600080fd5b60045434116102ca57600080fd5b3415156102d657600080fd5b6004541561030357600454600354600160a060020a03166000908152600960205260409020805490910190555b6003805473ffffffffffffffffffffffffffffffffffffffff191633600160a060020a031690811790915534600481905560408051928352602083019190915280517ff4757a49b326036464bec6fe419a4ae38c8a02ce3e68bf0809674f6aab8ad3009281900390910190a1565b60015481565b600054600160a060020a031681565b6002805460408051602060018416156101000260001901909316849004601f810184900484028201840190925281815292918301828280156104095780601f106103de57610100808354040283529160200191610409565b820191906000526020600020905b8154815290600101906020018083116103ec57829003601f168201915b505050505081565b600160a060020a0333166000908152600960205260408120548181111561048d57600160a060020a0333166000818152600960205260408082208290555183156108fc0291849190818181858888f19350505050151561048d57600160a060020a033316600090815260096020526040812082905591506104b2565b60045430600160a060020a03163114156104ad5730600160a060020a0316ff5b600191505b5090565b600354600160a060020a031681565b60085481565b60055460ff1681565b60028060055460ff1660038111156104e857fe5b146104f257600080fd5b60005433600160a060020a0390811691161461050d57600080fd5b600454604051600160a060020a0333169180156108fc02916000818181858888f19350505050158015610544573d6000803e3d6000fd5b5050565b60045481565b600060018060055460ff16600381111561056457fe5b1461056e57600080fd5b60035433600160a060020a0390811691161461058957600080fd5b6006548314156105a9576005805460ff19166002179055600191506105ae565b600091505b50919050565b6001544210156105c357600080fd5b600a5460ff16156105d357600080fd5b600a805460ff1916600117905560035460045460408051600160a060020a039093168352602083019190915280517fdaec4582d5d9595688c8c98545fdd1c696d41c6aeaeb636737e84ed2f5c00eda9281900390910190a16005805460ff191660011790556007544201600855565b600060018060055460ff16600381111561065857fe5b1461066257600080fd5b60085442101561067157600080fd5b6005805460ff19166003179055600454600160a060020a0330163114156104ad5730600160a060020a0316ff00a165627a7a72305820ae241789057c65ab1b75485fb3ed2ff3a90a53fff954f2edbf1306c3d4a0c2420029a165627a7a723058209eefbaacae30cf3658f99100f9919a81802a4473b3e4040df96fc69a46a1d2f90029",
  "source": "pragma solidity ^0.4.11;\n\nimport './dataAuction.sol';\n\n\n/**\n* The usefullness of this is to be considered. As a new deployment is still required\n* for the factory when <pre>Auction</pre> changes. For now this is only a holder\n* for each user and her Product as auction. Does not provide the immutability\n* as the child object change will force changes to this factory\n*/\ncontract AuctionFactory {\n\n\t// This is dummy holder so that changes to Product are loaded along with factory\n\t// This number will match the migration number\n\tuint256 public version = 16;\n\n\t//restrict call to create produt later using this owner only\n\taddress factoryOwner;\n\n\t// contains the owner of an auction mapped to the hash of that auction\n\taddress[] public auctions;\n\t// mapping( address => address) public escrows;\n\n\tfunction AuctionFactory() {\n\t\tfactoryOwner = msg.sender;\n\t}\n\t\n  function createAuction(uint biddingTime, address beneficiary, uint collectionPeriod, bytes32 sellerHash, string metadata) returns (address auctionAddress) {\n      \n      address owner = msg.sender;\n      dataAuction auction = new dataAuction(biddingTime, beneficiary, collectionPeriod, sellerHash, metadata); \n      auctions.push(auction);\n      // AuctionEscrow escrow = new AuctionEscrow(owner, auction);\n      // escrows[auction] = escrow;\n\n  return auction;\n  \n  }\n\n  // function getAuction(address owner) returns (address) {\n  //     return auctions[owner];\n  // }\n\n    // function getEscrow(address auction) returns (address) {\n    //     return escrows[auction];\n    // }\n\n\n}\n\n",
  "sourcePath": "/Users/austinhwang/Documents/GitHub/datachain/contracts/AuctionFactory.sol",
  "compiler": {
    "name": "solc",
    "version": "0.4.23+commit.124ca40d.Emscripten.clang"
  },
  "schemaVersion": "2.0.0",
  "updatedAt": "2018-04-25T03:12:07.610Z"
}