{
  "contractName": "AuctionFactory",
  "abi": [
    {
      "constant": true,
      "inputs": [
        {
          "name": "",
          "type": "address"
        }
      ],
      "name": "auctions",
      "outputs": [
        {
          "name": "",
          "type": "address"
        }
      ],
      "payable": false,
      "stateMutability": "view",
      "type": "function"
    },
    {
      "constant": true,
      "inputs": [],
      "name": "version",
      "outputs": [
        {
          "name": "",
          "type": "uint256"
        }
      ],
      "payable": false,
      "stateMutability": "view",
      "type": "function"
    },
    {
      "inputs": [],
      "payable": false,
      "stateMutability": "nonpayable",
      "type": "constructor"
    },
    {
      "constant": false,
      "inputs": [
        {
          "name": "biddingTime",
          "type": "uint256"
        },
        {
          "name": "beneficiary",
          "type": "address"
        },
        {
          "name": "collectionPeriod",
          "type": "uint256"
        },
        {
          "name": "sellerHash",
          "type": "bytes32"
        },
        {
          "name": "metadata",
          "type": "string"
        }
      ],
      "name": "createAuction",
      "outputs": [
        {
          "name": "auctionAddress",
          "type": "address"
        }
      ],
      "payable": false,
      "stateMutability": "nonpayable",
      "type": "function"
    },
    {
      "constant": false,
      "inputs": [
        {
          "name": "owner",
          "type": "address"
        }
      ],
      "name": "getAuction",
      "outputs": [
        {
          "name": "",
          "type": "address"
        }
      ],
      "payable": false,
      "stateMutability": "nonpayable",
      "type": "function"
    }
  ],
  "bytecode": "0x6080604052601060005534801561001557600080fd5b5060018054600160a060020a03191633600160a060020a0316179055610b4a806100406000396000f3006080604052600436106100615763ffffffff7c01000000000000000000000000000000000000000000000000000000006000350416631d59410a811461006657806354fd4d50146100bd57806379deae7b146100e4578063e82bbc2814610112575b600080fd5b34801561007257600080fd5b5061009473ffffffffffffffffffffffffffffffffffffffff60043516610193565b6040805173ffffffffffffffffffffffffffffffffffffffff9092168252519081900360200190f35b3480156100c957600080fd5b506100d26101bb565b60408051918252519081900360200190f35b3480156100f057600080fd5b5061009473ffffffffffffffffffffffffffffffffffffffff600435166101c1565b34801561011e57600080fd5b50604080516020600460843581810135601f8101849004840285018401909552848452610094948235946024803573ffffffffffffffffffffffffffffffffffffffff169560443595606435953695919460a49490939101919081908401838280828437509497506101ec9650505050505050565b60026020526000908152604090205473ffffffffffffffffffffffffffffffffffffffff1681565b60005481565b73ffffffffffffffffffffffffffffffffffffffff9081166000908152600260205260409020541690565b6000338187878787876101fd610316565b85815273ffffffffffffffffffffffffffffffffffffffff8516602080830191909152604082018590526060820184905260a0608083018181528451918401919091528351909160c08401919085019080838360005b8381101561026b578181015183820152602001610253565b50505050905090810190601f1680156102985780820380516001836020036101000a031916815260200191505b509650505050505050604051809103906000f0801580156102bd573d6000803e3d6000fd5b5073ffffffffffffffffffffffffffffffffffffffff9283166000908152600260205260409020805473ffffffffffffffffffffffffffffffffffffffff19169184169190911790819055909116979650505050505050565b6040516107f880610327833901905600608060405234801561001057600080fd5b506040516107f83803806107f883398101604090815281516020830151918301516060840151608085015192949192909101600085101561005057600080fd5b600160a060020a038416151561006557600080fd5b60008054600160a060020a031916600160a060020a03861617905542850160015580516100999060029060208401906100b6565b50506005805460ff19169055600791909155600655506101519050565b828054600181600116156101000203166002900490600052602060002090601f016020900481019282601f106100f757805160ff1916838001178555610124565b82800160010185558215610124579182015b82811115610124578251825591602001919060010190610109565b50610130929150610134565b5090565b61014e91905b80821115610130576000815560010161013a565b90565b610698806101606000396000f3006080604052600436106100b95763ffffffff7c01000000000000000000000000000000000000000000000000000000006000350416631998aeef81146100be5780632a24f46c146100c857806338af3eed146100dd578063392f37e91461010e5780633aea10a61461019857806391f90157146101c1578063b8ebf926146101d6578063c19d93fb146101fd578063c885bc5814610236578063d57bde791461024b578063dc4e472c14610260578063fed39eed14610278575b600080fd5b6100c661028d565b005b3480156100d457600080fd5b506100c6610345565b3480156100e957600080fd5b506100f26103d3565b60408051600160a060020a039092168252519081900360200190f35b34801561011a57600080fd5b506101236103e2565b6040805160208082528351818301528351919283929083019185019080838360005b8381101561015d578181015183820152602001610145565b50505050905090810190601f16801561018a5780820380516001836020036101000a031916815260200191505b509250505060405180910390f35b3480156101a457600080fd5b506101ad61046d565b604080519115158252519081900360200190f35b3480156101cd57600080fd5b506100f2610512565b3480156101e257600080fd5b506101eb610521565b60408051918252519081900360200190f35b34801561020957600080fd5b50610212610527565b6040518082600381111561022257fe5b60ff16815260200191505060405180910390f35b34801561024257600080fd5b506100c6610530565b34801561025757600080fd5b506101eb6105a4565b34801561026c57600080fd5b506101ad6004356105aa565b34801561028457600080fd5b506101ad610610565b60015442111561029c57600080fd5b60045434116102aa57600080fd5b600454156102d757600454600354600160a060020a03166000908152600960205260409020805490910190555b6003805473ffffffffffffffffffffffffffffffffffffffff191633600160a060020a031690811790915534600481905560408051928352602083019190915280517ff4757a49b326036464bec6fe419a4ae38c8a02ce3e68bf0809674f6aab8ad3009281900390910190a1565b60015442101561035457600080fd5b600a5460ff161561036457600080fd5b600a805460ff1916600117905560035460045460408051600160a060020a039093168352602083019190915280517fdaec4582d5d9595688c8c98545fdd1c696d41c6aeaeb636737e84ed2f5c00eda9281900390910190a16005805460ff191660011790556007544201600855565b600054600160a060020a031681565b6002805460408051602060018416156101000260001901909316849004601f810184900484028201840190925281815292918301828280156104655780601f1061043a57610100808354040283529160200191610465565b820191906000526020600020905b81548152906001019060200180831161044857829003601f168201915b505050505081565b600160a060020a033316600090815260096020526040812054818111156104e957600160a060020a0333166000818152600960205260408082208290555183156108fc0291849190818181858888f1935050505015156104e957600160a060020a0333166000908152600960205260408120829055915061050e565b60045430600160a060020a03163114156105095730600160a060020a0316ff5b600191505b5090565b600354600160a060020a031681565b60085481565b60055460ff1681565b60028060055460ff16600381111561054457fe5b1461054e57600080fd5b60005433600160a060020a0390811691161461056957600080fd5b600454604051600160a060020a0333169180156108fc02916000818181858888f193505050501580156105a0573d6000803e3d6000fd5b5050565b60045481565b600060018060055460ff1660038111156105c057fe5b146105ca57600080fd5b60035433600160a060020a039081169116146105e557600080fd5b600654831415610605576005805460ff191660021790556001915061060a565b600091505b50919050565b600060018060055460ff16600381111561062657fe5b1461063057600080fd5b60085442101561063f57600080fd5b6005805460ff19166003179055600454600160a060020a0330163114156105095730600160a060020a0316ff00a165627a7a72305820a8846b6c17545d84658f0e9e2e91d08f83789992e7ea22973b1ac30b436201e30029a165627a7a7230582015e1b4b9da1646dca83d4959e7386f63104712b0fcebbfc36cb5e421aaea4dcc0029",
  "source": "pragma solidity ^0.4.11;\n\nimport './dataAuction.sol';\n\n\n/**\n* The usefullness of this is to be considered. As a new deployment is still required\n* for the factory when <pre>Auction</pre> changes. For now this is only a holder\n* for each user and her Product as auction. Does not provide the immutability\n* as the child object change will force changes to this factory\n*/\ncontract AuctionFactory {\n\n\t// This is dummy holder so that changes to Product are loaded along with factory\n\t// This number will match the migration number\n\tuint256 public version = 16;\n\n\t//restrict call to create produt later using this owner only\n\taddress factoryOwner;\n\n\t// contains the owner of an auction mapped to the hash of that auction\n\tmapping( address => address) public auctions;\n\t// mapping( address => address) public escrows;\n\n\tfunction AuctionFactory() {\n\t\tfactoryOwner = msg.sender;\n\t}\n\t\n    function createAuction(uint biddingTime, address beneficiary, uint collectionPeriod, bytes32 sellerHash, string metadata) returns (address auctionAddress) {\n        \n        address owner = msg.sender;\n        dataAuction auction = new dataAuction(biddingTime, beneficiary, collectionPeriod, sellerHash, metadata); \n        auctions[owner] = auction;\n        // AuctionEscrow escrow = new AuctionEscrow(owner, auction);\n        // escrows[auction] = escrow;\n\n\t\treturn auctions[owner];\n    \n    }\n\n    function getAuction(address owner) returns (address) {\n        return auctions[owner];\n    }\n\n    // function getEscrow(address auction) returns (address) {\n    //     return escrows[auction];\n    // }\n\n\n}\n\n",
  "sourcePath": "/Users/hari/Harvard/cs144r/datachain/contracts/AuctionFactory.sol",
  "compiler": {
    "name": "solc",
    "version": "0.4.23+commit.124ca40d.Emscripten.clang"
  },
  "schemaVersion": "2.0.0",
  "updatedAt": "2018-04-24T03:37:09.283Z"
}