{
  "contractName": "AuctionFactory",
  "abi": [
    {
      "constant": true,
      "inputs": [
        {
          "name": "",
          "type": "address"
        }
      ],
      "name": "auctions",
      "outputs": [
        {
          "name": "",
          "type": "address"
        }
      ],
      "payable": false,
      "stateMutability": "view",
      "type": "function"
    },
    {
      "constant": true,
      "inputs": [
        {
          "name": "",
          "type": "address"
        }
      ],
      "name": "escrows",
      "outputs": [
        {
          "name": "",
          "type": "address"
        }
      ],
      "payable": false,
      "stateMutability": "view",
      "type": "function"
    },
    {
      "constant": true,
      "inputs": [],
      "name": "version",
      "outputs": [
        {
          "name": "",
          "type": "uint256"
        }
      ],
      "payable": false,
      "stateMutability": "view",
      "type": "function"
    },
    {
      "inputs": [],
      "payable": false,
      "stateMutability": "nonpayable",
      "type": "constructor"
    },
    {
      "constant": false,
      "inputs": [
        {
          "name": "pTicketPerPerson",
          "type": "uint32"
        },
        {
          "name": "pTotalTickets",
          "type": "uint32"
        },
        {
          "name": "pMinimumBid",
          "type": "uint32"
        },
        {
          "name": "pEndTime",
          "type": "uint256"
        }
      ],
      "name": "createAuction",
      "outputs": [
        {
          "name": "auctionAddress",
          "type": "address"
        }
      ],
      "payable": false,
      "stateMutability": "nonpayable",
      "type": "function"
    },
    {
      "constant": false,
      "inputs": [
        {
          "name": "owner",
          "type": "address"
        }
      ],
      "name": "getAuction",
      "outputs": [
        {
          "name": "",
          "type": "address"
        }
      ],
      "payable": false,
      "stateMutability": "nonpayable",
      "type": "function"
    },
    {
      "constant": false,
      "inputs": [
        {
          "name": "auction",
          "type": "address"
        }
      ],
      "name": "getEscrow",
      "outputs": [
        {
          "name": "",
          "type": "address"
        }
      ],
      "payable": false,
      "stateMutability": "nonpayable",
      "type": "function"
    }
  ],
  "bytecode": "0x6080604052601060005534801561001557600080fd5b5060018054600160a060020a03191633600160a060020a0316179055611a02806100406000396000f3006080604052600436106100775763ffffffff7c01000000000000000000000000000000000000000000000000000000006000350416631d59410a811461007c578063477230b2146100d357806354fd4d501461010157806379deae7b14610128578063a26d494d14610156578063c26b55d214610184575b600080fd5b34801561008857600080fd5b506100aa73ffffffffffffffffffffffffffffffffffffffff600435166101b1565b6040805173ffffffffffffffffffffffffffffffffffffffff9092168252519081900360200190f35b3480156100df57600080fd5b506100aa73ffffffffffffffffffffffffffffffffffffffff600435166101d9565b34801561010d57600080fd5b50610116610201565b60408051918252519081900360200190f35b34801561013457600080fd5b506100aa73ffffffffffffffffffffffffffffffffffffffff60043516610207565b34801561016257600080fd5b506100aa73ffffffffffffffffffffffffffffffffffffffff60043516610232565b34801561019057600080fd5b506100aa63ffffffff6004358116906024358116906044351660643561025d565b60026020526000908152604090205473ffffffffffffffffffffffffffffffffffffffff1681565b60036020526000908152604090205473ffffffffffffffffffffffffffffffffffffffff1681565b60005481565b73ffffffffffffffffffffffffffffffffffffffff9081166000908152600260205260409020541690565b73ffffffffffffffffffffffffffffffffffffffff9081166000908152600360205260409020541690565b6000338180828888888861026f6103c7565b73ffffffffffffffffffffffffffffffffffffffff909516855263ffffffff9384166020860152918316604080860191909152921660608401526080830152519081900360a001906000f0801580156102cc573d6000803e3d6000fd5b5073ffffffffffffffffffffffffffffffffffffffff8481166000908152600260205260409020805473ffffffffffffffffffffffffffffffffffffffff1916918316919091179055915082826103216103d7565b73ffffffffffffffffffffffffffffffffffffffff928316815291166020820152604080519182900301906000f080158015610361573d6000803e3d6000fd5b5073ffffffffffffffffffffffffffffffffffffffff9283166000908152600360209081526040808320805473ffffffffffffffffffffffffffffffffffffffff1916948716949094179093559484168152600290945290922054169695505050505050565b604051610ce7806103e883390190565b604051610908806110cf833901905600608060405260008054610100600160ff19909216821764ffffffff00191617909155805467ffffffff00000000191664020000000017905534801561004357600080fd5b5060405160a080610ce78339810160409081528151602083015191830151606084015160809094015160058054600160a060020a031916600160a060020a039094169390931790925560008054610e109093024201600255606860020a63ffffffff02199092166d010000000000000000000000000063ffffffff9485160217604860020a63ffffffff02191669010000000000000000009184169182021768ffffffff00000000001916650100000000009190910217608860020a63ffffffff021916710100000000000000000000000000000000009290931691909102919091178155610baf90819061013890396000f3006080604052600436106100fb5763ffffffff7c010000000000000000000000000000000000000000000000000000000060003504166310589fc48114610100578063166d6df61461013a5780631b5b687a1461018e5780631d445f80146101af57806322f3e2d4146101c45780633197cbb6146101ed57806351ffcab3146102145780635e3d3957146102345780635ec2c7bf146102495780637ee0e26d1461027a5780638547af301461028f57806391f90157146102a4578063ba7e663f146102b9578063bc42ee4d146102ce578063d3a86386146102f8578063d57bde791461030d578063dd11247e14610322578063e0c2a9cf14610337575b600080fd5b34801561010c57600080fd5b50610121600160a060020a036004351661034c565b6040805163ffffffff9092168252519081900360200190f35b34801561014657600080fd5b5061015e600160a060020a036004351660243561041d565b6040805163ffffffff9485168152929093166020830152600160a060020a03168183015290519081900360600190f35b34801561019a57600080fd5b50610121600160a060020a0360043516610471565b3480156101bb57600080fd5b506101216104a9565b3480156101d057600080fd5b506101d96104d2565b604080519115158252519081900360200190f35b3480156101f957600080fd5b506102026104db565b60408051918252519081900360200190f35b34801561022057600080fd5b5061023263ffffffff600435166104e1565b005b34801561024057600080fd5b50610121610795565b34801561025557600080fd5b5061025e6107ba565b60408051600160a060020a039092168252519081900360200190f35b34801561028657600080fd5b506101216107c9565b34801561029b57600080fd5b5061025e6107dd565b3480156102b057600080fd5b5061025e6107ec565b3480156102c557600080fd5b506101216107fb565b3480156102da57600080fd5b5061012163ffffffff60043516600160a060020a0360243516610810565b34801561030457600080fd5b50610121610833565b34801561031957600080fd5b50610121610854565b34801561032e57600080fd5b50610121610860565b34801561034357600080fd5b50610121610879565b600160a060020a0381166000908152600660205260408120805482908190811015610410575060009050805b825463ffffffff821610156104085784600160a060020a0316838263ffffffff168154811015156103a557fe5b600091825260209091200154680100000000000000009004600160a060020a0316141561040057828163ffffffff168154811015156103e057fe5b600091825260209091200154640100000000900463ffffffff1691909101905b600101610378565b819350610415565b600093505b505050919050565b60066020528160005260406000208181548110151561043857fe5b60009182526020909120015463ffffffff80821693506401000000008204169150680100000000000000009004600160a060020a031683565b6000805463ffffffff61010090910481168252600760209081526040808420600160a060020a03861685529091529091205416919050565b600054790100000000000000000000000000000000000000000000000000900463ffffffff1681565b60005460ff1681565b60025481565b60055460009033600160a060020a039081169116141561050057600080fd5b61050a3383610896565b905063ffffffff81161561056c5760408051600160a060020a033316815263ffffffff808516602083015283168183015290517f51ad84bb69799921c62768880e8de65b130a7ab82eb72800b2015dc8268832889181900360600190a1610791565b600080546101009081900463ffffffff908116835260076020908152604080852033600160a060020a0316808752908352818620805463ffffffff19168986169081179091556004805473ffffffffffffffffffffffffffffffffffffffff19168317905586547fffffffffffffff00000000ffffffffffffffffffffffffffffffffffffffffff16750100000000000000000000000000000000000000000082021796879055825191825292810192909252929093041682820152517f127f000d46779d2c9e7f3cb60484b8012453bd3cae4d1c406582145616a276d2916060908290030190a160008054600163ffffffff790100000000000000000000000000000000000000000000000000808404821683018216027fffffff00000000ffffffffffffffffffffffffffffffffffffffffffffffffff9093169290921790925590548116908316111561074e576001805463ffffffff191663ffffffff84811691909117918290556003805473ffffffffffffffffffffffffffffffffffffffff191633600160a060020a031690811790915560005460408051928352938316602083015261010090049091168183015290517f023e99227c295083884639a721870d7485b31a3713483a335229fffe727409b2916060908290030190a15b60015460005464010000000090910463ffffffff9081167901000000000000000000000000000000000000000000000000009092041610610791576107916109ae565b5050565b6000547501000000000000000000000000000000000000000000900463ffffffff1681565b600554600160a060020a031681565b600154640100000000900463ffffffff1681565b600454600160a060020a031681565b600354600160a060020a031681565b60005465010000000000900463ffffffff1681565b600760209081526000928352604080842090915290825290205463ffffffff1681565b60005471010000000000000000000000000000000000900463ffffffff1681565b60015463ffffffff1681565b6000546901000000000000000000900463ffffffff1681565b6000546d0100000000000000000000000000900463ffffffff1681565b60008054819060ff1615156108af576101f491506109a7565b60008363ffffffff161115806108e5575060005463ffffffff710100000000000000000000000000000000009091048116908416105b156108f357606491506109a7565b60008054600160a060020a038616825260066020526040909120546d010000000000000000000000000090910463ffffffff161161093457606691506109a7565b506000805463ffffffff61010090910481168252600760209081526040808420600160a060020a0388168552909152909120541680158061098057508263ffffffff168163ffffffff16105b1561098e57600091506109a7565b8263ffffffff168163ffffffff1611156109a757606791505b5092915050565b60038054600160a060020a039081166000818152600660209081526040808320815160608181018452855463ffffffff61010091829004811684526001805482168589019081528588019a8b5286548083018855968a52888a20955195909601805496519a518c1668010000000000000000027fffffffff0000000000000000000000000000000000000000ffffffffffffffff9b84166401000000000267ffffffff000000001997851663ffffffff1990991698909817969096169690961799909916939093179093559754955494548351969097168652938416928501929092529304168183015290517f88c27906462ca2b6d5795790f36cb46d3048e3625e18681dac98617434a4c44b929181900390910190a1600080546003805473ffffffffffffffffffffffffffffffffffffffff199081169091556001805463ffffffff19168155600480549092169091557fffffff0000000000000000ffffffffffffffffffffffffffffffffffffffffff6501000000000063ffffffff6101008086048216909401811690930264ffffffff0019909416939093178381048316600019018316840268ffffffff000000000019919091161716928390559104161515610b81576000805460ff191690555b5600a165627a7a72305820c6d88916ab610d9f7ac5438fc398e7899280f2eff55c41d33eb556657a71efb50029608060405234801561001057600080fd5b5060405160408061090883398101604052805160209091015160008054600160a060020a03938416600160a060020a031991821617909155600180549390921692169190911790556108a1806100676000396000f3006080604052600436106100825763ffffffff7c01000000000000000000000000000000000000000000000000000000006000350416633cecd71981146100875780635a6c9e6d1461009e57806377e2f10b146100d2578063baac3039146100f3578063e2982c21146100fb578063f8c5079f14610142578063fbf47a9a14610157575b600080fd5b34801561009357600080fd5b5061009c61018c565b005b3480156100aa57600080fd5b506100b660043561024e565b60408051600160a060020a039092168252519081900360200190f35b3480156100de57600080fd5b5061009c600160a060020a0360043516610276565b61009c6103d4565b34801561010757600080fd5b5061011c600160a060020a03600435166106dd565b604080519485529215156020850152901515838301526060830152519081900360800190f35b34801561014e57600080fd5b5061009c61070a565b34801561016357600080fd5b50610178600160a060020a03600435166107ac565b604080519115158252519081900360200190f35b60005433600160a060020a039081169116146101a757600080fd5b6101af6107f4565b1515610240576040805160208082526029908201527f556e72656c6561736564207469636b6574732065786973742e2043616e6e6f74818301527f2064657374727563740000000000000000000000000000000000000000000000606082015290517f87e615831b9659008284796071882a6b839e6b9e50d1b4ebb418f9a9a37339339181900360800190a1600080fd5b600054600160a060020a0316ff5b600380548290811061025c57fe5b600091825260209091200154600160a060020a0316905081565b6000805433600160a060020a0390811691161461029257600080fd5b61029b826107ac565b80156102cc5750600160a060020a0382166000908152600260205260409020600190810154610100900460ff161515145b156100825760008054600160a060020a03848116835260026020526040808420549051919092169282156108fc02929190818181858888f193505050509050801561037d57600160a060020a03821660008181526002602081815260408084209384556001808501805460ff191690911790554293909201929092558051928352517fa764d113e2e2c0ea8ba375fc4af4d51699ff50d8df3b165f150acd7046140bd19281900390910190a16103d0565b600160a060020a0382166000818152600260209081526040918290205482519384529083015280517fe6a2603be188c2c3455276d0b91506694b05c85fd2359728b372d97cd67550db9281900390910190a15b5050565b6000806000600160009054906101000a9004600160a060020a0316600160a060020a03166322f3e2d46040518163ffffffff167c0100000000000000000000000000000000000000000000000000000000028152600401602060405180830381600087803b15801561044557600080fd5b505af1158015610459573d6000803e3d6000fd5b505050506040513d602081101561046f57600080fd5b505115156106d857600160a060020a0333166000908152600260205260409020600181015490935060ff161580156104a657508254155b1561066457600154604080517f10589fc4000000000000000000000000000000000000000000000000000000008152600160a060020a033381166004830152915134955091909216916310589fc49160248083019260209291908290030181600087803b15801561051657600080fd5b505af115801561052a573d6000803e3d6000fd5b505050506040513d602081101561054057600080fd5b50519050600063ffffffff821611801561055f5750818163ffffffff16145b1561008257604080516080810182523481526000602080830182815283850183815260608501848152600160a060020a033316808652600280865288872097518855935160018881018054955115156101000261ff001993151560ff199097169690961792909216949094179055905195909201949094556003805494850181559092527fc2575a0e9e593c00f959f8c92f12db2869c3395a3b0502d05e2516446f71f85b909201805473ffffffffffffffffffffffffffffffffffffffff191682179055855483519182529181019190915281517f178f1ca51ff9fb48abc63bc73ce1f207326d118d026f63d43a66be1715550545929181900390910190a16106d8565b60408051600160a060020a0333168152602081018290526016818301527f4275796572206861732070616964206561726c69657200000000000000000000606082015290517f133fa3eaed3030715238d6887febd227d6773b7b9410b44a70932bf3d231a0e19181900360800190a1600080fd5b505050565b600260208190526000918252604090912080546001820154919092015460ff808316926101009004169084565b610713336107ac565b15156001148015610745575033600160a060020a0316600090815260026020526040902060010154610100900460ff16155b151561074d57fe5b600160a060020a033316600081815260026020908152604091829020600101805461ff001916610100179055815192835290517fed36f02945d1d1014e57403638d8def0a870a7b3a63182d38eccae651fbde33e9281900390910190a1565b600160a060020a03811660009081526002602052604081206001015460ff161580156107ee5750600160a060020a038216600090815260026020526040812054115b92915050565b600080805b60035482101561086b576002600060038481548110151561081657fe5b6000918252602080832090910154600160a060020a031683528201929092526040019020600181015490915060ff161580610852575080546000105b156108605760009250610870565b6001909101906107f9565b600192505b5050905600a165627a7a7230582095ef243b2725e0f3c1d54c37ae9e476666592a4737a0928786614f44be83a0330029a165627a7a723058204616d32ccb75cf1ae36c5aa7203589c0ae2465c2f57e9a202d8a6cd472b96eec0029",
  "source": "pragma solidity ^0.4.11;\n\nimport './Auction.sol';\nimport './AuctionEscrow.sol';\n\n\n/**\n* The usefullness of this is to be considered. As a new deployment is still required\n* for the factory when <pre>Auction</pre> changes. For now this is only a holder\n* for each user and her Product as auction. Does not provide the immutability\n* as the child object change will force changes to this factory\n*/\ncontract AuctionFactory {\n\n\t// This is dummy holder so that changes to Product are loaded along with factory\n\t// This number will match the migration number\n\tuint256 public version = 16;\n\n\t//restrict call to create produt later using this owner only\n\taddress factoryOwner;\n\n\t// contains the owner of an auction mapped to the hash of that auction\n\tmapping( address => address) public auctions;\n\tmapping( address => address) public escrows;\n\n\tfunction AuctionFactory() {\n\t\tfactoryOwner = msg.sender;\n\t}\n\t\n    function createAuction(uint32 pTicketPerPerson, uint32 pTotalTickets, uint32 pMinimumBid, uint256 pEndTime ) returns (address auctionAddress) {\n        \n        address owner = msg.sender;\n        Auction auction = new Auction(owner, pTicketPerPerson, pTotalTickets, pMinimumBid, pEndTime); \n        auctions[owner] = auction;\n        AuctionEscrow escrow = new AuctionEscrow(owner, auction);\n        escrows[auction] = escrow;\n\n\t\treturn auctions[owner];\n    \n    }\n\n    function getAuction(address owner) returns (address) {\n        return auctions[owner];\n    }\n\n    function getEscrow(address auction) returns (address) {\n        return escrows[auction];\n    }\n\n\n}\n\n",
  "sourcePath": "/Users/austinhwang/Documents/GitHub/datachain/contracts/AuctionFactory.sol",
  "compiler": {
    "name": "solc",
    "version": "0.4.23+commit.124ca40d.Emscripten.clang"
  },
  "schemaVersion": "2.0.0",
  "updatedAt": "2018-04-23T01:38:07.412Z"
}