{
  "contractName": "AuctionEscrow",
  "abi": [
    {
      "constant": true,
      "inputs": [
        {
          "name": "",
          "type": "uint256"
        }
      ],
      "name": "arrBuyers",
      "outputs": [
        {
          "name": "",
          "type": "address"
        }
      ],
      "payable": false,
      "stateMutability": "view",
      "type": "function"
    },
    {
      "constant": true,
      "inputs": [
        {
          "name": "",
          "type": "address"
        }
      ],
      "name": "payments",
      "outputs": [
        {
          "name": "amount",
          "type": "uint256"
        },
        {
          "name": "released",
          "type": "bool"
        },
        {
          "name": "tktReceived",
          "type": "bool"
        },
        {
          "name": "releaseDate",
          "type": "uint256"
        }
      ],
      "payable": false,
      "stateMutability": "view",
      "type": "function"
    },
    {
      "inputs": [
        {
          "name": "_actioneer",
          "type": "address"
        },
        {
          "name": "_auction",
          "type": "address"
        }
      ],
      "payable": false,
      "stateMutability": "nonpayable",
      "type": "constructor"
    },
    {
      "anonymous": false,
      "inputs": [
        {
          "indexed": false,
          "name": "buyer",
          "type": "address"
        },
        {
          "indexed": false,
          "name": "price",
          "type": "uint256"
        }
      ],
      "name": "TicketPaid",
      "type": "event"
    },
    {
      "anonymous": false,
      "inputs": [
        {
          "indexed": false,
          "name": "buyer",
          "type": "address"
        }
      ],
      "name": "TicketReceipt",
      "type": "event"
    },
    {
      "anonymous": false,
      "inputs": [
        {
          "indexed": false,
          "name": "evtMsg",
          "type": "string"
        }
      ],
      "name": "SelfDestructError",
      "type": "event"
    },
    {
      "anonymous": false,
      "inputs": [
        {
          "indexed": false,
          "name": "buyer",
          "type": "address"
        },
        {
          "indexed": false,
          "name": "evtMsg",
          "type": "string"
        }
      ],
      "name": "DoublePayError",
      "type": "event"
    },
    {
      "anonymous": false,
      "inputs": [
        {
          "indexed": false,
          "name": "buyer",
          "type": "address"
        }
      ],
      "name": "PaymentRelease",
      "type": "event"
    },
    {
      "anonymous": false,
      "inputs": [
        {
          "indexed": false,
          "name": "buyer",
          "type": "address"
        },
        {
          "indexed": false,
          "name": "price",
          "type": "uint256"
        }
      ],
      "name": "PaymentReleaseFail",
      "type": "event"
    },
    {
      "constant": true,
      "inputs": [
        {
          "name": "buyer",
          "type": "address"
        }
      ],
      "name": "hasPaid",
      "outputs": [
        {
          "name": "paymentStatus",
          "type": "bool"
        }
      ],
      "payable": false,
      "stateMutability": "view",
      "type": "function"
    },
    {
      "constant": false,
      "inputs": [],
      "name": "recordTicketReceipt",
      "outputs": [],
      "payable": false,
      "stateMutability": "nonpayable",
      "type": "function"
    },
    {
      "constant": false,
      "inputs": [],
      "name": "cleanup",
      "outputs": [],
      "payable": false,
      "stateMutability": "nonpayable",
      "type": "function"
    },
    {
      "constant": false,
      "inputs": [],
      "name": "payForTickets",
      "outputs": [],
      "payable": true,
      "stateMutability": "payable",
      "type": "function"
    },
    {
      "constant": false,
      "inputs": [
        {
          "name": "buyer",
          "type": "address"
        }
      ],
      "name": "releasePayment",
      "outputs": [],
      "payable": false,
      "stateMutability": "nonpayable",
      "type": "function"
    }
  ],
  "bytecode": "0x608060405234801561001057600080fd5b50604051604080610fd38339810180604052810190808051906020019092919080519060200190929190505050816000806101000a81548173ffffffffffffffffffffffffffffffffffffffff021916908373ffffffffffffffffffffffffffffffffffffffff16021790555080600160006101000a81548173ffffffffffffffffffffffffffffffffffffffff021916908373ffffffffffffffffffffffffffffffffffffffff1602179055505050610f04806100cf6000396000f300608060405260043610610083576000357c0100000000000000000000000000000000000000000000000000000000900463ffffffff1680633cecd719146100885780635a6c9e6d1461009f57806377e2f10b1461010c578063baac30391461014f578063e2982c2114610159578063f8c5079f146101cd578063fbf47a9a146101e4575b600080fd5b34801561009457600080fd5b5061009d61023f565b005b3480156100ab57600080fd5b506100ca6004803603810190808035906020019092919050505061037b565b604051808273ffffffffffffffffffffffffffffffffffffffff1673ffffffffffffffffffffffffffffffffffffffff16815260200191505060405180910390f35b34801561011857600080fd5b5061014d600480360381019080803573ffffffffffffffffffffffffffffffffffffffff1690602001909291905050506103b9565b005b610157610731565b005b34801561016557600080fd5b5061019a600480360381019080803573ffffffffffffffffffffffffffffffffffffffff169060200190929190505050610bcd565b60405180858152602001841515151581526020018315151515815260200182815260200194505050505060405180910390f35b3480156101d957600080fd5b506101e2610c17565b005b3480156101f057600080fd5b50610225600480360381019080803573ffffffffffffffffffffffffffffffffffffffff169060200190929190505050610d4e565b604051808215151515815260200191505060405180910390f35b6000809054906101000a900473ffffffffffffffffffffffffffffffffffffffff1673ffffffffffffffffffffffffffffffffffffffff163373ffffffffffffffffffffffffffffffffffffffff1614151561029a57600080fd5b600015156102a6610dfb565b15151415610341577f87e615831b9659008284796071882a6b839e6b9e50d1b4ebb418f9a9a37339336040518080602001828103825260298152602001807f556e72656c6561736564207469636b6574732065786973742e2043616e6e6f7481526020017f206465737472756374000000000000000000000000000000000000000000000081525060400191505060405180910390a1600080fd5b6000809054906101000a900473ffffffffffffffffffffffffffffffffffffffff1673ffffffffffffffffffffffffffffffffffffffff16ff5b60038181548110151561038a57fe5b906000526020600020016000915054906101000a900473ffffffffffffffffffffffffffffffffffffffff1681565b60008060009054906101000a900473ffffffffffffffffffffffffffffffffffffffff1673ffffffffffffffffffffffffffffffffffffffff163373ffffffffffffffffffffffffffffffffffffffff1614151561041657600080fd5b61041f82610d4e565b801561047e575060011515600260008473ffffffffffffffffffffffffffffffffffffffff1673ffffffffffffffffffffffffffffffffffffffff16815260200190815260200160002060010160019054906101000a900460ff161515145b15610728576000809054906101000a900473ffffffffffffffffffffffffffffffffffffffff1673ffffffffffffffffffffffffffffffffffffffff166108fc600260008573ffffffffffffffffffffffffffffffffffffffff1673ffffffffffffffffffffffffffffffffffffffff168152602001908152602001600020600001549081150290604051600060405180830381858888f1935050505090508015610675576000600260008473ffffffffffffffffffffffffffffffffffffffff1673ffffffffffffffffffffffffffffffffffffffff168152602001908152602001600020600001819055506001600260008473ffffffffffffffffffffffffffffffffffffffff1673ffffffffffffffffffffffffffffffffffffffff16815260200190815260200160002060010160006101000a81548160ff02191690831515021790555042600260008473ffffffffffffffffffffffffffffffffffffffff1673ffffffffffffffffffffffffffffffffffffffff168152602001908152602001600020600201819055507fa764d113e2e2c0ea8ba375fc4af4d51699ff50d8df3b165f150acd7046140bd182604051808273ffffffffffffffffffffffffffffffffffffffff1673ffffffffffffffffffffffffffffffffffffffff16815260200191505060405180910390a1610723565b7fe6a2603be188c2c3455276d0b91506694b05c85fd2359728b372d97cd67550db82600260008573ffffffffffffffffffffffffffffffffffffffff1673ffffffffffffffffffffffffffffffffffffffff16815260200190815260200160002060000154604051808373ffffffffffffffffffffffffffffffffffffffff1673ffffffffffffffffffffffffffffffffffffffff1681526020018281526020019250505060405180910390a15b61072d565b600080fd5b5050565b6000806000600160009054906101000a900473ffffffffffffffffffffffffffffffffffffffff1673ffffffffffffffffffffffffffffffffffffffff166322f3e2d46040518163ffffffff167c0100000000000000000000000000000000000000000000000000000000028152600401602060405180830381600087803b1580156107bc57600080fd5b505af11580156107d0573d6000803e3d6000fd5b505050506040513d60208110156107e657600080fd5b81019080805190602001909291905050501515610bc857600260003373ffffffffffffffffffffffffffffffffffffffff1673ffffffffffffffffffffffffffffffffffffffff16815260200190815260200160002092508260010160009054906101000a900460ff16158015610861575060008360000154145b15610b2657349150600160009054906101000a900473ffffffffffffffffffffffffffffffffffffffff1673ffffffffffffffffffffffffffffffffffffffff166310589fc4336040518263ffffffff167c0100000000000000000000000000000000000000000000000000000000028152600401808273ffffffffffffffffffffffffffffffffffffffff1673ffffffffffffffffffffffffffffffffffffffff168152602001915050602060405180830381600087803b15801561092657600080fd5b505af115801561093a573d6000803e3d6000fd5b505050506040513d602081101561095057600080fd5b8101908080519060200190929190505050905060008163ffffffff1611801561097e5750818163ffffffff16145b15610b1c576080604051908101604052803481526020016000151581526020016000151581526020016000815250600260003373ffffffffffffffffffffffffffffffffffffffff1673ffffffffffffffffffffffffffffffffffffffff1681526020019081526020016000206000820151816000015560208201518160010160006101000a81548160ff02191690831515021790555060408201518160010160016101000a81548160ff0219169083151502179055506060820151816002015590505060033390806001815401808255809150509060018203906000526020600020016000909192909190916101000a81548173ffffffffffffffffffffffffffffffffffffffff021916908373ffffffffffffffffffffffffffffffffffffffff160217905550507f178f1ca51ff9fb48abc63bc73ce1f207326d118d026f63d43a66be1715550545338460000154604051808373ffffffffffffffffffffffffffffffffffffffff1673ffffffffffffffffffffffffffffffffffffffff1681526020018281526020019250505060405180910390a1610b21565b600080fd5b610bc7565b7f133fa3eaed3030715238d6887febd227d6773b7b9410b44a70932bf3d231a0e133604051808273ffffffffffffffffffffffffffffffffffffffff1673ffffffffffffffffffffffffffffffffffffffff16815260200180602001828103825260168152602001807f4275796572206861732070616964206561726c696572000000000000000000008152506020019250505060405180910390a1600080fd5b5b505050565b60026020528060005260406000206000915090508060000154908060010160009054906101000a900460ff16908060010160019054906101000a900460ff16908060020154905084565b60011515610c2433610d4e565b1515148015610c86575060001515600260003373ffffffffffffffffffffffffffffffffffffffff1673ffffffffffffffffffffffffffffffffffffffff16815260200190815260200160002060010160019054906101000a900460ff161515145b1515610c8e57fe5b6001600260003373ffffffffffffffffffffffffffffffffffffffff1673ffffffffffffffffffffffffffffffffffffffff16815260200190815260200160002060010160016101000a81548160ff0219169083151502179055507fed36f02945d1d1014e57403638d8def0a870a7b3a63182d38eccae651fbde33e33604051808273ffffffffffffffffffffffffffffffffffffffff1673ffffffffffffffffffffffffffffffffffffffff16815260200191505060405180910390a1565b6000801515600260008473ffffffffffffffffffffffffffffffffffffffff1673ffffffffffffffffffffffffffffffffffffffff16815260200190815260200160002060010160009054906101000a900460ff161515148015610df457506000600260008473ffffffffffffffffffffffffffffffffffffffff1673ffffffffffffffffffffffffffffffffffffffff16815260200190815260200160002060000154115b9050919050565b60008060008091505b600380549050821015610ece5760026000600384815481101515610e2457fe5b9060005260206000200160009054906101000a900473ffffffffffffffffffffffffffffffffffffffff1673ffffffffffffffffffffffffffffffffffffffff1673ffffffffffffffffffffffffffffffffffffffff1681526020019081526020016000209050600015158160010160009054906101000a900460ff1615151480610eb3575060008160000154115b15610ec15760009250610ed3565b8180600101925050610e04565b600192505b5050905600a165627a7a72305820103af1c21f30006e842353692a1d70af5474c986548ac30438def1bf90c018ec0029",
  "source": "pragma solidity ^0.4.11;\n\nimport './Auction.sol';\n\n/**\n* Instance of this will be per auction\n* It holds all the money during bidding of each auction\n* and finally refunds the balances as applicable to the bidders\n*/\ncontract AuctionEscrow {\n\n    address private auctioneer;\n    Auction private auction;\n\n    \n    event TicketPaid(address buyer, uint256 price);\n    event TicketReceipt(address buyer);\n    event SelfDestructError(string evtMsg);\n    event DoublePayError(address buyer, string evtMsg);\n    event PaymentRelease(address buyer);\n    event PaymentReleaseFail(address buyer, uint256 price);\n\n    modifier auctioneerOnly {\n        if(msg.sender != auctioneer) revert();\n        _;\n    }\n    \n    /**\n     * Each buyers payment status is stored here.\n     * Once buyer confirms recieving ticket \n     * the funds are moved to auctioneer\n    */\n    mapping (address => Payment) public payments;\n    address [] public arrBuyers;\n\n    struct Payment {\n        uint256 amount;\n        bool released;\n        bool tktReceived;\n        uint256 releaseDate;\n    }\n \n \n    function AuctionEscrow(address _actioneer, Auction _auction) public {\n        auctioneer = _actioneer;\n        auction = _auction;\n    }\n    \n    /**\n     * If buyer has paid then value will be greater than 0\n    */\n    function hasPaid (address buyer) public constant returns (bool paymentStatus) {\n        return payments[buyer].released == false && payments[buyer].amount > 0;\n    }\n\n    \n    function recordTicketReceipt() public {\n        //dont update ticket status if not paid\n        assert( hasPaid(msg.sender) == true && payments[msg.sender].tktReceived == false);\n        //update status \n        payments[msg.sender].tktReceived = true;\n        TicketReceipt(msg.sender);\n    }\n    \n    // /** Dont accept payment on contract. Cleanup method would avoid this problem*/\n    // function () { throw; }\n    \n    /**\n     * Atleast at this point the assumption is that someone \n     * cannot call selfdestruct directly on contract even if \n     * this contract does not override it\n     */\n    function cleanup() public auctioneerOnly {\n        if(canDelete() == false) {\n            SelfDestructError(\"Unreleased tickets exist. Cannot destruct\");\n            revert();\n        }\n        selfdestruct(auctioneer);\n    }\n    \n    function canDelete() private returns (bool del) {\n        for(uint256 i = 0; i < arrBuyers.length; i++) {\n            Payment p = payments[arrBuyers[i]];\n            if(p.released == false || p.amount > 0) {\n                return false;\n            }\n        }\n        return true;\n    }\n\n    /**\n     * Called by the customer for him to recieve the tickets\n     * \n     */\n    function payForTickets() public payable {\n\n        //check that auction has expired\n        if(!auction.isActive()) {\n                Payment storage p = payments[msg.sender];\n                if(!p.released && p.amount == 0) { //allow only once\n                    uint txnVal = msg.value;\n                    uint32 bidTotal = auction.getPayableBidsTotal(msg.sender);\n                    //accept payment for all tickets only\n                    if(bidTotal > 0 && bidTotal == txnVal) {\n\n                        payments[msg.sender] = Payment({amount: msg.value, released: false, tktReceived : false, releaseDate: 0});\n                        arrBuyers.push(msg.sender);\n                        TicketPaid(msg.sender, p.amount);\n                        \n                    } else {//dont accept money if total is less\n                        revert();\n                    }\n                } else {\n                    DoublePayError(msg.sender, \"Buyer has paid earlier\");\n                    revert();\n                }\n        }\n    }\n\n\n\n    /**\n     * The public function which the auctioneer will call to move funds\n     * to his account\n     */\n    function releasePayment(address buyer) public auctioneerOnly {\n        \n        if(hasPaid(buyer) && payments[buyer].tktReceived == true) {\n            bool sent = auctioneer.send(payments[buyer].amount);\n            if(sent) {\n                payments[buyer].amount = 0;\n                payments[buyer].released = true;\n                payments[buyer].releaseDate = now;\n                PaymentRelease(buyer);\n            } else {\n                PaymentReleaseFail(buyer, payments[buyer].amount);\n            }\n        } else {\n            revert();\n        }\n\n    }\n    \n  \n\n\n\n}",
  "sourcePath": "/Users/austinhwang/Documents/GitHub/react-eth-auction/contracts/AuctionEscrow.sol",
  "compiler": {
    "name": "solc",
    "version": "0.4.23+commit.124ca40d.Emscripten.clang"
  },
  "schemaVersion": "2.0.0",
  "updatedAt": "2018-04-22T07:54:59.170Z"
}