{
  "contractName": "dataAuction",
  "abi": [
    {
      "constant": true,
      "inputs": [],
      "name": "auctionEnd",
      "outputs": [
        {
          "name": "",
          "type": "uint256"
        }
      ],
      "payable": false,
      "stateMutability": "view",
      "type": "function"
    },
    {
      "constant": true,
      "inputs": [],
      "name": "beneficiary",
      "outputs": [
        {
          "name": "",
          "type": "address"
        }
      ],
      "payable": false,
      "stateMutability": "view",
      "type": "function"
    },
    {
      "constant": true,
      "inputs": [],
      "name": "metadata",
      "outputs": [
        {
          "name": "",
          "type": "string"
        }
      ],
      "payable": false,
      "stateMutability": "view",
      "type": "function"
    },
    {
      "constant": true,
      "inputs": [],
      "name": "highestBidder",
      "outputs": [
        {
          "name": "",
          "type": "address"
        }
      ],
      "payable": false,
      "stateMutability": "view",
      "type": "function"
    },
    {
      "constant": true,
      "inputs": [],
      "name": "collectionEnd",
      "outputs": [
        {
          "name": "",
          "type": "uint256"
        }
      ],
      "payable": false,
      "stateMutability": "view",
      "type": "function"
    },
    {
      "constant": true,
      "inputs": [],
      "name": "state",
      "outputs": [
        {
          "name": "",
          "type": "uint8"
        }
      ],
      "payable": false,
      "stateMutability": "view",
      "type": "function"
    },
    {
      "constant": true,
      "inputs": [],
      "name": "highestBid",
      "outputs": [
        {
          "name": "",
          "type": "uint256"
        }
      ],
      "payable": false,
      "stateMutability": "view",
      "type": "function"
    },
    {
      "inputs": [
        {
          "name": "_biddingTime",
          "type": "uint256"
        },
        {
          "name": "_beneficiary",
          "type": "address"
        },
        {
          "name": "_collectionPeriod",
          "type": "uint256"
        },
        {
          "name": "_sellerHash",
          "type": "bytes32"
        },
        {
          "name": "_metadata",
          "type": "string"
        }
      ],
      "payable": false,
      "stateMutability": "nonpayable",
      "type": "constructor"
    },
    {
      "anonymous": false,
      "inputs": [
        {
          "indexed": false,
          "name": "bidder",
          "type": "address"
        },
        {
          "indexed": false,
          "name": "amount",
          "type": "uint256"
        }
      ],
      "name": "HighestBidIncreased",
      "type": "event"
    },
    {
      "anonymous": false,
      "inputs": [
        {
          "indexed": false,
          "name": "winner",
          "type": "address"
        },
        {
          "indexed": false,
          "name": "amount",
          "type": "uint256"
        }
      ],
      "name": "AuctionEnded",
      "type": "event"
    },
    {
      "constant": false,
      "inputs": [],
      "name": "bid",
      "outputs": [],
      "payable": true,
      "stateMutability": "payable",
      "type": "function"
    },
    {
      "constant": false,
      "inputs": [],
      "name": "refundBid",
      "outputs": [
        {
          "name": "",
          "type": "bool"
        }
      ],
      "payable": false,
      "stateMutability": "nonpayable",
      "type": "function"
    },
    {
      "constant": false,
      "inputs": [],
      "name": "withdrawReward",
      "outputs": [],
      "payable": false,
      "stateMutability": "nonpayable",
      "type": "function"
    },
    {
      "constant": false,
      "inputs": [
        {
          "name": "buyerHash",
          "type": "bytes32"
        }
      ],
      "name": "confirmExchange",
      "outputs": [
        {
          "name": "",
          "type": "bool"
        }
      ],
      "payable": false,
      "stateMutability": "nonpayable",
      "type": "function"
    },
    {
      "constant": false,
      "inputs": [],
      "name": "incomplete",
      "outputs": [
        {
          "name": "",
          "type": "bool"
        }
      ],
      "payable": false,
      "stateMutability": "nonpayable",
      "type": "function"
    },
    {
      "constant": false,
      "inputs": [],
      "name": "endAuction",
      "outputs": [],
      "payable": false,
      "stateMutability": "nonpayable",
      "type": "function"
    }
  ],
  "bytecode": "0x608060405234801561001057600080fd5b5060405161082a38038061082a83398101604090815281516020830151918301516060840151608085015192949192909101600085101561005057600080fd5b600160a060020a038416151561006557600080fd5b60008054600160a060020a031916600160a060020a03861617905542850160015580516100999060029060208401906100b6565b50506005805460ff19169055600791909155600655506101519050565b828054600181600116156101000203166002900490600052602060002090601f016020900481019282601f106100f757805160ff1916838001178555610124565b82800160010185558215610124579182015b82811115610124578251825591602001919060010190610109565b50610130929150610134565b5090565b61014e91905b80821115610130576000815560010161013a565b90565b6106ca806101606000396000f3006080604052600436106100c45763ffffffff7c01000000000000000000000000000000000000000000000000000000006000350416631998aeef81146100c95780632a24f46c146100d357806338af3eed146100fa578063392f37e91461012b5780633aea10a6146101b557806391f90157146101de578063b8ebf926146101f3578063c19d93fb14610208578063c885bc5814610241578063d57bde7914610256578063dc4e472c1461026b578063fe67a54b14610283578063fed39eed14610298575b600080fd5b6100d16102ad565b005b3480156100df57600080fd5b506100e8610371565b60408051918252519081900360200190f35b34801561010657600080fd5b5061010f610377565b60408051600160a060020a039092168252519081900360200190f35b34801561013757600080fd5b50610140610386565b6040805160208082528351818301528351919283929083019185019080838360005b8381101561017a578181015183820152602001610162565b50505050905090810190601f1680156101a75780820380516001836020036101000a031916815260200191505b509250505060405180910390f35b3480156101c157600080fd5b506101ca610411565b604080519115158252519081900360200190f35b3480156101ea57600080fd5b5061010f6104b6565b3480156101ff57600080fd5b506100e86104c5565b34801561021457600080fd5b5061021d6104cb565b6040518082600381111561022d57fe5b60ff16815260200191505060405180910390f35b34801561024d57600080fd5b506100d16104d4565b34801561026257600080fd5b506100e8610548565b34801561027757600080fd5b506101ca60043561054e565b34801561028f57600080fd5b506100d16105b4565b3480156102a457600080fd5b506101ca610642565b6001544211156102bc57600080fd5b60045434116102ca57600080fd5b3415156102d657600080fd5b6004541561030357600454600354600160a060020a03166000908152600960205260409020805490910190555b6003805473ffffffffffffffffffffffffffffffffffffffff191633600160a060020a031690811790915534600481905560408051928352602083019190915280517ff4757a49b326036464bec6fe419a4ae38c8a02ce3e68bf0809674f6aab8ad3009281900390910190a1565b60015481565b600054600160a060020a031681565b6002805460408051602060018416156101000260001901909316849004601f810184900484028201840190925281815292918301828280156104095780601f106103de57610100808354040283529160200191610409565b820191906000526020600020905b8154815290600101906020018083116103ec57829003601f168201915b505050505081565b600160a060020a0333166000908152600960205260408120548181111561048d57600160a060020a0333166000818152600960205260408082208290555183156108fc0291849190818181858888f19350505050151561048d57600160a060020a033316600090815260096020526040812082905591506104b2565b60045430600160a060020a03163114156104ad5730600160a060020a0316ff5b600191505b5090565b600354600160a060020a031681565b60085481565b60055460ff1681565b60028060055460ff1660038111156104e857fe5b146104f257600080fd5b60005433600160a060020a0390811691161461050d57600080fd5b600454604051600160a060020a0333169180156108fc02916000818181858888f19350505050158015610544573d6000803e3d6000fd5b5050565b60045481565b600060018060055460ff16600381111561056457fe5b1461056e57600080fd5b60035433600160a060020a0390811691161461058957600080fd5b6006548314156105a9576005805460ff19166002179055600191506105ae565b600091505b50919050565b6001544210156105c357600080fd5b600a5460ff16156105d357600080fd5b600a805460ff1916600117905560035460045460408051600160a060020a039093168352602083019190915280517fdaec4582d5d9595688c8c98545fdd1c696d41c6aeaeb636737e84ed2f5c00eda9281900390910190a16005805460ff191660011790556007544201600855565b600060018060055460ff16600381111561065857fe5b1461066257600080fd5b60085442101561067157600080fd5b6005805460ff19166003179055600454600160a060020a0330163114156104ad5730600160a060020a0316ff00a165627a7a72305820ae241789057c65ab1b75485fb3ed2ff3a90a53fff954f2edbf1306c3d4a0c2420029",
  "source": "pragma solidity ^0.4.20;\n\ncontract dataAuction {\n    // Parameters of the auction. Times are either\n    // absolute unix timestamps (seconds since 1970-01-01)\n    // or time periods in seconds.\n    address public beneficiary; // Owner of the auction\n    uint public auctionEnd; // End time of the auction to be calculated\n    string public metadata; // Auction metadata, should be replaced by IPFS\n    \n    address public highestBidder;\n    uint public highestBid;\n    \n    // Open:bidding, Locked:auction closed and highest bid set\n    // Completed: data exanged successfully and seller paid\n    // Incomplete: data not exchanged in given time and only outbid users can retrieve funds, buyer funds burned\n    enum State { Open, Locked, Completed, Incomplete }  \n    State public state; // Current state of the auction.\n\n    \n    bytes32 sellerHash; // Hash of seller's first 256 bytes of data\n    \n    uint collectionPeriod; //Seconds\n    uint public collectionEnd; //Set after auction lock\n    \n\n    // Allowed withdrawals of previous bids\n    mapping(address => uint) pendingReturns;\n\n    // Set to true at the end, disallows any change\n    bool ended;\n\n    // Events that will be fired on changes.\n    event HighestBidIncreased(address bidder, uint amount);\n    event AuctionEnded(address winner, uint amount);\n\n    //Check for a specified state\n    modifier inState(State _state) {\n        require(state == _state);\n        _;\n    }\n    \n    //Check if transaction started by buyer\n    modifier onlyBuyer() {\n        require(msg.sender == highestBidder);\n        _;\n    }\n\n    //Check if transaction started by seller\n    modifier onlySeller() {\n        require(msg.sender == beneficiary);\n        _;\n    }\n\n    // The following is a so-called natspec comment,\n    // recognizable by the three slashes.\n    // It will be shown when the user is asked to\n    // confirm a transaction.\n\n    /// Create a simple auction with `_biddingTime`\n    /// seconds bidding time on behalf of the\n    /// beneficiary address `_beneficiary`.\n    function dataAuction(\n        uint _biddingTime,\n        address _beneficiary,\n        uint _collectionPeriod,\n        bytes32 _sellerHash,\n        string _metadata\n    ) public {\n        require(_biddingTime >= 0);\n        require(_beneficiary != 0);\n        \n        beneficiary = _beneficiary;\n        auctionEnd = now + _biddingTime;\n        metadata = _metadata;\n        state = State.Open;\n        collectionPeriod = _collectionPeriod;\n        sellerHash = _sellerHash;\n    }\n    \n    \n    \n    /// Bid on the auction with the value sent\n    /// together with this transaction.\n    /// The value will only be refunded if the\n    /// auction is not won.\n    function bid() public payable {\n        // No arguments are necessary, all\n        // information is already part of\n        // the transaction. The keyword payable\n        // is required for the function to\n        // be able to receive Ether.\n\n        // Revert the call if the bidding\n        // period is over.\n        require(now <= auctionEnd);\n\n        // If the bid is not higher, send the\n        // money back.\n        require(msg.value > highestBid);\n\n        require(msg.value != 0);\n\n        if (highestBid != 0) {\n            // Sending back the money by simply using\n            // highestBidder.send(highestBid) is a security risk\n            // because it could execute an untrusted contract.\n            // It is always safer to let the recipients\n            // withdraw their money themselves.\n            pendingReturns[highestBidder] += highestBid;\n        }\n        highestBidder = msg.sender;\n        highestBid = msg.value;\n        HighestBidIncreased(msg.sender, msg.value);\n    }\n\n    /// Withdraw a bid that was overbid.\n    function refundBid() public returns (bool) {\n        uint amount = pendingReturns[msg.sender];\n        if (amount > 0) {\n            // It is important to set this to zero because the recipient\n            // can call this function again as part of the receiving call\n            // before `send` returns.\n            pendingReturns[msg.sender] = 0;\n\n            if (!msg.sender.send(amount)) {\n                // No need to call throw here, just reset the amount owing\n                pendingReturns[msg.sender] = amount;\n                return false;\n            }\n        }\n        if(address(this).balance==highestBid){\n            selfdestruct(this);\n        }\n        return true;\n    }\n    \n    // Seller can get reward if buyer has verified it\n    function withdrawReward() public inState(State.Completed)  onlySeller() {\n        msg.sender.transfer(highestBid);\n    }\n    \n    // Confirm that buyer has payload, pay seller\n    function confirmExchange(bytes32 buyerHash) public inState(State.Locked) onlyBuyer() returns (bool) {\n        if(buyerHash==sellerHash){\n            state = State.Completed;\n            return true;\n        }\n        return false;\n    }\n    \n    // Allows users to check if the auction has been completed. \n    // If not after the collection period, then the auction becomes incomplete and buyer's money is gone\n    function incomplete() public inState(State.Locked) returns (bool) {\n        require(now >= collectionEnd); // collection period is over\n        state = State.Incomplete;\n        if(address(this).balance == highestBid){\n            selfdestruct(this);\n        }\n        return true;\n    }\n    \n    /// End the auction and set state to locked\n    function endAuction() public {\n\n        require(now >= auctionEnd); // auction did not yet end\n        require(!ended); // this function has already been called\n\n        ended = true;\n        AuctionEnded(highestBidder, highestBid);\n\n        state = State.Locked;\n        collectionEnd = now + collectionPeriod;\n\n    }\n}",
  "sourcePath": "/Users/austinhwang/Documents/GitHub/datachain/contracts/dataAuction.sol",
  "compiler": {
    "name": "solc",
    "version": "0.4.23+commit.124ca40d.Emscripten.clang"
  },
  "schemaVersion": "2.0.0",
  "updatedAt": "2018-04-25T02:12:36.607Z"
}