{
  "contractName": "SigVerify",
  "abi": [
    {
      "constant": false,
      "inputs": [
        {
          "name": "h",
          "type": "bytes32"
        },
        {
          "name": "v",
          "type": "uint8"
        },
        {
          "name": "r",
          "type": "bytes32"
        },
        {
          "name": "s",
          "type": "bytes32"
        }
      ],
      "name": "verifySign",
      "outputs": [
        {
          "name": "",
          "type": "address"
        }
      ],
      "payable": false,
      "stateMutability": "nonpayable",
      "type": "function"
    }
  ],
  "bytecode": "0x608060405234801561001057600080fd5b50610251806100206000396000f300608060405260043610610041576000357c0100000000000000000000000000000000000000000000000000000000900463ffffffff16806363a9505a14610046575b600080fd5b34801561005257600080fd5b5061009e6004803603810190808035600019169060200190929190803560ff169060200190929190803560001916906020019092919080356000191690602001909291905050506100e0565b604051808273ffffffffffffffffffffffffffffffffffffffff1673ffffffffffffffffffffffffffffffffffffffff16815260200191505060405180910390f35b600060606000806040805190810160405280601c81526020017f19457468657265756d205369676e6564204d6573736167653a0a333200000000815250925082886040518083805190602001908083835b6020831015156101565780518252602082019150602081019050602083039250610131565b6001836020036101000a03801982511681845116808217855250505050505090500182600019166000191681526020019250505060405180910390209150600182888888604051600081526020016040526040518085600019166000191681526020018460ff1660ff1681526020018360001916600019168152602001826000191660001916815260200194505050505060206040516020810390808403906000865af115801561020b573d6000803e3d6000fd5b5050506020604051035190508093505050509493505050505600a165627a7a72305820e481b8f3d95498ccb98bc37726e6cd50309cc156d475bdceaecc10c1f19e64a10029",
  "source": "pragma solidity ^0.4.0;\n\ncontract SigVerify {\n\n\n    function verifySign(bytes32 h, uint8 v, bytes32 r, bytes32 s) returns (address) {\n        bytes memory prefix = \"\\x19Ethereum Signed Message:\\n32\";\n        bytes32 prefixedHash = sha3(prefix, h);\n        address addr = ecrecover(prefixedHash, v, r, s);\n\n        return addr;\n    }\n}",
  "sourcePath": "/Users/austinhwang/Documents/GitHub/react-eth-auction/contracts/SigVerify.sol",
  "compiler": {
    "name": "solc",
    "version": "0.4.23+commit.124ca40d.Emscripten.clang"
  },
  "schemaVersion": "2.0.0",
  "updatedAt": "2018-04-22T07:54:59.172Z"
}