{
  "contractName": "SigVerify",
  "abi": [
    {
      "constant": false,
      "inputs": [
        {
          "name": "h",
          "type": "bytes32"
        },
        {
          "name": "v",
          "type": "uint8"
        },
        {
          "name": "r",
          "type": "bytes32"
        },
        {
          "name": "s",
          "type": "bytes32"
        }
      ],
      "name": "verifySign",
      "outputs": [
        {
          "name": "",
          "type": "address"
        }
      ],
      "payable": false,
      "stateMutability": "nonpayable",
      "type": "function"
    }
  ],
  "bytecode": "0x608060405234801561001057600080fd5b506101bf806100206000396000f3006080604052600436106100405763ffffffff7c010000000000000000000000000000000000000000000000000000000060003504166363a9505a8114610045575b600080fd5b34801561005157600080fd5b5061006960043560ff60243516604435606435610092565b6040805173ffffffffffffffffffffffffffffffffffffffff9092168252519081900360200190f35b604080518082018252601c8082527f19457468657265756d205369676e6564204d6573736167653a0a3332000000006020830190815292516000938492839285928b928291908083835b602083106100fb5780518252601f1990920191602091820191016100dc565b51815160209384036101000a6000190180199092169116179052920193845250604080519384900382018420600080865285840180845282905260ff8e1686840152606086018d9052608086018c905291519097506001955060a080860195939450601f198201938290030191865af115801561017c573d6000803e3d6000fd5b5050604051601f19015199985050505050505050505600a165627a7a72305820695bc2192a1c5c7e6388afc85a0a7b0b3c55913f2c508c0c386aee0d1836e2f50029",
  "source": "pragma solidity ^0.4.0;\n\ncontract SigVerify {\n\n\n    function verifySign(bytes32 h, uint8 v, bytes32 r, bytes32 s) returns (address) {\n        bytes memory prefix = \"\\x19Ethereum Signed Message:\\n32\";\n        bytes32 prefixedHash = sha3(prefix, h);\n        address addr = ecrecover(prefixedHash, v, r, s);\n\n        return addr;\n    }\n}",
  "sourcePath": "/Users/austinhwang/Documents/GitHub/datachain/contracts/SigVerify.sol",
  "compiler": {
    "name": "solc",
    "version": "0.4.23+commit.124ca40d.Emscripten.clang"
  },
  "schemaVersion": "2.0.0",
  "updatedAt": "2018-04-25T02:12:31.303Z"
}