{
  "contractName": "AuctionFactory",
  "abi": [
    {
      "constant": true,
      "inputs": [],
      "name": "version",
      "outputs": [
        {
          "name": "",
          "type": "uint256"
        }
      ],
      "payable": false,
      "stateMutability": "view",
      "type": "function"
    },
    {
      "constant": true,
      "inputs": [
        {
          "name": "",
          "type": "uint256"
        }
      ],
      "name": "auctions",
      "outputs": [
        {
          "name": "",
          "type": "address"
        }
      ],
      "payable": false,
      "stateMutability": "view",
      "type": "function"
    },
    {
      "inputs": [],
      "payable": false,
      "stateMutability": "nonpayable",
      "type": "constructor"
    },
    {
      "constant": false,
      "inputs": [
        {
          "name": "biddingTime",
          "type": "uint256"
        },
        {
          "name": "beneficiary",
          "type": "address"
        },
        {
          "name": "collectionPeriod",
          "type": "uint256"
        },
        {
          "name": "sellerHash",
          "type": "bytes32"
        },
        {
          "name": "metadata",
          "type": "string"
        },
        {
          "name": "apiKey",
          "type": "string"
        }
      ],
      "name": "createAuction",
      "outputs": [
        {
          "name": "auctionAddress",
          "type": "address"
        }
      ],
      "payable": false,
      "stateMutability": "nonpayable",
      "type": "function"
    },
    {
      "constant": false,
      "inputs": [
        {
          "name": "index",
          "type": "uint256"
        }
      ],
      "name": "getAuction",
      "outputs": [
        {
          "name": "",
          "type": "address"
        }
      ],
      "payable": false,
      "stateMutability": "nonpayable",
      "type": "function"
    },
    {
      "constant": false,
      "inputs": [],
      "name": "numAuctions",
      "outputs": [
        {
          "name": "",
          "type": "uint256"
        }
      ],
      "payable": false,
      "stateMutability": "nonpayable",
      "type": "function"
    }
  ],
  "bytecode": "0x6080604052601060005534801561001557600080fd5b5060018054600160a060020a03191633600160a060020a0316179055610d5a806100406000396000f30060806040526004361061006c5763ffffffff7c010000000000000000000000000000000000000000000000000000000060003504166354fd4d508114610071578063571a26a0146100985780635c113acc146100d957806378bd7935146100ee578063a3cc2d4f14610106575b600080fd5b34801561007d57600080fd5b506100866101c5565b60408051918252519081900360200190f35b3480156100a457600080fd5b506100b06004356101cb565b6040805173ffffffffffffffffffffffffffffffffffffffff9092168252519081900360200190f35b3480156100e557600080fd5b50610086610200565b3480156100fa57600080fd5b506100b0600435610206565b34801561011257600080fd5b50604080516020600460843581810135601f81018490048402850184019095528484526100b0948235946024803573ffffffffffffffffffffffffffffffffffffffff169560443595606435953695919460a494909391019190819084018382808284375050604080516020601f89358b018035918201839004830284018301909452808352979a99988101979196509182019450925082915084018382808284375094975061023f9650505050505050565b60005481565b60028054829081106101d957fe5b60009182526020909120015473ffffffffffffffffffffffffffffffffffffffff16905081565b60025490565b600060028281548110151561021757fe5b60009182526020909120015473ffffffffffffffffffffffffffffffffffffffff1692915050565b600033818888888888886102516103ea565b86815273ffffffffffffffffffffffffffffffffffffffff8616602080830191909152604082018690526060820185905260c0608083018181528551918401919091528451909160a084019160e085019187019080838360005b838110156102c35781810151838201526020016102ab565b50505050905090810190601f1680156102f05780820380516001836020036101000a031916815260200191505b50838103825284518152845160209182019186019080838360005b8381101561032357818101518382015260200161030b565b50505050905090810190601f1680156103505780820380516001836020036101000a031916815260200191505b5098505050505050505050604051809103906000f080158015610377573d6000803e3d6000fd5b50600280546001810182556000919091527f405787fa12a823e0f2b7631cc41b3ba8828b3321ca811111fa75cd3aa3bb5ace01805473ffffffffffffffffffffffffffffffffffffffff191673ffffffffffffffffffffffffffffffffffffffff83161790559998505050505050505050565b604051610934806103fb833901905600608060405234801561001057600080fd5b5060405161093438038061093483398101604090815281516020830151918301516060840151608085015160a08601519395929391929081019101600086101561005957600080fd5b600160a060020a038516151561006e57600080fd5b80516100819060039060208401906100d4565b5060008054600160a060020a031916600160a060020a03871617905542860160015581516100b69060029060208501906100d4565b50506006805460ff19169055506008919091556007555061016f9050565b828054600181600116156101000203166002900490600052602060002090601f016020900481019282601f1061011557805160ff1916838001178555610142565b82800160010185558215610142579182015b82811115610142578251825591602001919060010190610127565b5061014e929150610152565b5090565b61016c91905b8082111561014e5760008155600101610158565b90565b6107b68061017e6000396000f3006080604052600436106100cf5763ffffffff7c01000000000000000000000000000000000000000000000000000000006000350416631998aeef81146100d45780632a24f46c146100de57806338af3eed14610105578063392f37e9146101365780633aea10a6146101c05780634272139d146101e957806391f90157146101fe578063b8ebf92614610213578063c19d93fb14610228578063c885bc5814610261578063d57bde7914610276578063dc4e472c1461028b578063fe67a54b146102a3578063fed39eed146102b8575b600080fd5b6100dc6102cd565b005b3480156100ea57600080fd5b506100f3610391565b60408051918252519081900360200190f35b34801561011157600080fd5b5061011a610397565b60408051600160a060020a039092168252519081900360200190f35b34801561014257600080fd5b5061014b6103a6565b6040805160208082528351818301528351919283929083019185019080838360005b8381101561018557818101518382015260200161016d565b50505050905090810190601f1680156101b25780820380516001836020036101000a031916815260200191505b509250505060405180910390f35b3480156101cc57600080fd5b506101d5610431565b604080519115158252519081900360200190f35b3480156101f557600080fd5b5061014b6104d6565b34801561020a57600080fd5b5061011a6105a2565b34801561021f57600080fd5b506100f36105b1565b34801561023457600080fd5b5061023d6105b7565b6040518082600381111561024d57fe5b60ff16815260200191505060405180910390f35b34801561026d57600080fd5b506100dc6105c0565b34801561028257600080fd5b506100f3610634565b34801561029757600080fd5b506101d560043561063a565b3480156102af57600080fd5b506100dc6106a0565b3480156102c457600080fd5b506101d561072e565b6001544211156102dc57600080fd5b60055434116102ea57600080fd5b3415156102f657600080fd5b6005541561032357600554600454600160a060020a03166000908152600a60205260409020805490910190555b6004805473ffffffffffffffffffffffffffffffffffffffff191633600160a060020a031690811790915534600581905560408051928352602083019190915280517ff4757a49b326036464bec6fe419a4ae38c8a02ce3e68bf0809674f6aab8ad3009281900390910190a1565b60015481565b600054600160a060020a031681565b6002805460408051602060018416156101000260001901909316849004601f810184900484028201840190925281815292918301828280156104295780601f106103fe57610100808354040283529160200191610429565b820191906000526020600020905b81548152906001019060200180831161040c57829003601f168201915b505050505081565b600160a060020a0333166000908152600a6020526040812054818111156104ad57600160a060020a0333166000818152600a60205260408082208290555183156108fc0291849190818181858888f1935050505015156104ad57600160a060020a0333166000908152600a6020526040812082905591506104d2565b60055430600160a060020a03163114156104cd5730600160a060020a0316ff5b600191505b5090565b606060018060065460ff1660038111156104ec57fe5b146104f657600080fd5b60045433600160a060020a0390811691161461051157600080fd5b6003805460408051602060026001851615610100026000190190941693909304601f810184900484028201840190925281815292918301828280156105975780601f1061056c57610100808354040283529160200191610597565b820191906000526020600020905b81548152906001019060200180831161057a57829003601f168201915b505050505091505090565b600454600160a060020a031681565b60095481565b60065460ff1681565b60028060065460ff1660038111156105d457fe5b146105de57600080fd5b60005433600160a060020a039081169116146105f957600080fd5b600554604051600160a060020a0333169180156108fc02916000818181858888f19350505050158015610630573d6000803e3d6000fd5b5050565b60055481565b600060018060065460ff16600381111561065057fe5b1461065a57600080fd5b60045433600160a060020a0390811691161461067557600080fd5b600754831415610695576006805460ff191660021790556001915061069a565b600091505b50919050565b6001544210156106af57600080fd5b600b5460ff16156106bf57600080fd5b600b805460ff1916600117905560045460055460408051600160a060020a039093168352602083019190915280517fdaec4582d5d9595688c8c98545fdd1c696d41c6aeaeb636737e84ed2f5c00eda9281900390910190a16006805460ff191660011790556008544201600955565b600060018060065460ff16600381111561074457fe5b1461074e57600080fd5b60095442101561075d57600080fd5b6006805460ff19166003179055600554600160a060020a0330163114156104cd5730600160a060020a0316ff00a165627a7a72305820b4dc627920fb020724c781cf4863a528d084c5d7eb0c777ebd0602f1c4e6ae430029a165627a7a72305820d8add8910cd21e688dc0bc39c8a6519c6f80c98d46125241c4f3243cd6dda4eb0029",
  "source": "pragma solidity ^0.4.11;\n\nimport './dataAuction.sol';\n\n\n/**\n* The usefullness of this is to be considered. As a new deployment is still required\n* for the factory when <pre>Auction</pre> changes. For now this is only a holder\n* for each user and her Product as auction. Does not provide the immutability\n* as the child object change will force changes to this factory\n*/\ncontract AuctionFactory {\n\n\t// This is dummy holder so that changes to Product are loaded along with factory\n\t// This number will match the migration number\n\tuint256 public version = 16;\n\n\t//restrict call to create produt later using this owner only\n\taddress factoryOwner;\n\n\t// contains the owner of an auction mapped to the hash of that auction\n\taddress[] public auctions;\n\t// mapping( address => address) public escrows;\n\n\tfunction AuctionFactory() {\n\t\tfactoryOwner = msg.sender;\n\t}\n\t\n  function createAuction(uint biddingTime, address beneficiary, uint collectionPeriod, bytes32 sellerHash, string metadata, string apiKey) returns (address auctionAddress) {\n      \n      address owner = msg.sender;\n      dataAuction auction = new dataAuction(biddingTime, beneficiary, collectionPeriod, sellerHash, metadata, apiKey); \n      auctions.push(auction);\n      // AuctionEscrow escrow = new AuctionEscrow(owner, auction);\n      // escrows[auction] = escrow;\n\n  return auction;\n  \n  }\n\n  function getAuction(uint256 index) returns (address) {\n      return auctions[index];\n  }\n\n  function numAuctions() returns (uint256) {\n    return auctions.length;\n  }\n\n    // function getEscrow(address auction) returns (address) {\n    //     return escrows[auction];\n    // }\n\n\n}\n\n",
  "sourcePath": "/Users/austinhwang/Documents/GitHub/datachain/contracts/AuctionFactory.sol",
  "compiler": {
    "name": "solc",
    "version": "0.4.23+commit.124ca40d.Emscripten.clang"
  },
  "schemaVersion": "2.0.0",
  "updatedAt": "2018-04-28T18:59:43.024Z"
}