{
  "contractName": "dataAuction",
  "abi": [
    {
      "constant": true,
      "inputs": [],
      "name": "auctionEnd",
      "outputs": [
        {
          "name": "",
          "type": "uint256"
        }
      ],
      "payable": false,
      "stateMutability": "view",
      "type": "function"
    },
    {
      "constant": true,
      "inputs": [],
      "name": "beneficiary",
      "outputs": [
        {
          "name": "",
          "type": "address"
        }
      ],
      "payable": false,
      "stateMutability": "view",
      "type": "function"
    },
    {
      "constant": true,
      "inputs": [],
      "name": "metadata",
      "outputs": [
        {
          "name": "",
          "type": "string"
        }
      ],
      "payable": false,
      "stateMutability": "view",
      "type": "function"
    },
    {
      "constant": true,
      "inputs": [],
      "name": "highestBidder",
      "outputs": [
        {
          "name": "",
          "type": "address"
        }
      ],
      "payable": false,
      "stateMutability": "view",
      "type": "function"
    },
    {
      "constant": true,
      "inputs": [],
      "name": "collectionEnd",
      "outputs": [
        {
          "name": "",
          "type": "uint256"
        }
      ],
      "payable": false,
      "stateMutability": "view",
      "type": "function"
    },
    {
      "constant": true,
      "inputs": [],
      "name": "state",
      "outputs": [
        {
          "name": "",
          "type": "uint8"
        }
      ],
      "payable": false,
      "stateMutability": "view",
      "type": "function"
    },
    {
      "constant": true,
      "inputs": [],
      "name": "highestBid",
      "outputs": [
        {
          "name": "",
          "type": "uint256"
        }
      ],
      "payable": false,
      "stateMutability": "view",
      "type": "function"
    },
    {
      "inputs": [
        {
          "name": "_biddingTime",
          "type": "uint256"
        },
        {
          "name": "_beneficiary",
          "type": "address"
        },
        {
          "name": "_collectionPeriod",
          "type": "uint256"
        },
        {
          "name": "_sellerHash",
          "type": "bytes32"
        },
        {
          "name": "_metadata",
          "type": "string"
        },
        {
          "name": "_apiKey",
          "type": "string"
        }
      ],
      "payable": false,
      "stateMutability": "nonpayable",
      "type": "constructor"
    },
    {
      "anonymous": false,
      "inputs": [
        {
          "indexed": false,
          "name": "bidder",
          "type": "address"
        },
        {
          "indexed": false,
          "name": "amount",
          "type": "uint256"
        }
      ],
      "name": "HighestBidIncreased",
      "type": "event"
    },
    {
      "anonymous": false,
      "inputs": [
        {
          "indexed": false,
          "name": "winner",
          "type": "address"
        },
        {
          "indexed": false,
          "name": "amount",
          "type": "uint256"
        }
      ],
      "name": "AuctionEnded",
      "type": "event"
    },
    {
      "constant": false,
      "inputs": [],
      "name": "bid",
      "outputs": [],
      "payable": true,
      "stateMutability": "payable",
      "type": "function"
    },
    {
      "constant": false,
      "inputs": [],
      "name": "refundBid",
      "outputs": [
        {
          "name": "",
          "type": "bool"
        }
      ],
      "payable": false,
      "stateMutability": "nonpayable",
      "type": "function"
    },
    {
      "constant": false,
      "inputs": [],
      "name": "withdrawReward",
      "outputs": [],
      "payable": false,
      "stateMutability": "nonpayable",
      "type": "function"
    },
    {
      "constant": false,
      "inputs": [
        {
          "name": "buyerHash",
          "type": "bytes32"
        }
      ],
      "name": "confirmExchange",
      "outputs": [
        {
          "name": "",
          "type": "bool"
        }
      ],
      "payable": false,
      "stateMutability": "nonpayable",
      "type": "function"
    },
    {
      "constant": false,
      "inputs": [],
      "name": "retrieveKey",
      "outputs": [
        {
          "name": "",
          "type": "string"
        }
      ],
      "payable": false,
      "stateMutability": "nonpayable",
      "type": "function"
    },
    {
      "constant": false,
      "inputs": [],
      "name": "incomplete",
      "outputs": [
        {
          "name": "",
          "type": "bool"
        }
      ],
      "payable": false,
      "stateMutability": "nonpayable",
      "type": "function"
    },
    {
      "constant": false,
      "inputs": [],
      "name": "endAuction",
      "outputs": [],
      "payable": false,
      "stateMutability": "nonpayable",
      "type": "function"
    }
  ],
  "bytecode": "0x608060405234801561001057600080fd5b5060405161093438038061093483398101604090815281516020830151918301516060840151608085015160a08601519395929391929081019101600086101561005957600080fd5b600160a060020a038516151561006e57600080fd5b80516100819060039060208401906100d4565b5060008054600160a060020a031916600160a060020a03871617905542860160015581516100b69060029060208501906100d4565b50506006805460ff19169055506008919091556007555061016f9050565b828054600181600116156101000203166002900490600052602060002090601f016020900481019282601f1061011557805160ff1916838001178555610142565b82800160010185558215610142579182015b82811115610142578251825591602001919060010190610127565b5061014e929150610152565b5090565b61016c91905b8082111561014e5760008155600101610158565b90565b6107b68061017e6000396000f3006080604052600436106100cf5763ffffffff7c01000000000000000000000000000000000000000000000000000000006000350416631998aeef81146100d45780632a24f46c146100de57806338af3eed14610105578063392f37e9146101365780633aea10a6146101c05780634272139d146101e957806391f90157146101fe578063b8ebf92614610213578063c19d93fb14610228578063c885bc5814610261578063d57bde7914610276578063dc4e472c1461028b578063fe67a54b146102a3578063fed39eed146102b8575b600080fd5b6100dc6102cd565b005b3480156100ea57600080fd5b506100f3610391565b60408051918252519081900360200190f35b34801561011157600080fd5b5061011a610397565b60408051600160a060020a039092168252519081900360200190f35b34801561014257600080fd5b5061014b6103a6565b6040805160208082528351818301528351919283929083019185019080838360005b8381101561018557818101518382015260200161016d565b50505050905090810190601f1680156101b25780820380516001836020036101000a031916815260200191505b509250505060405180910390f35b3480156101cc57600080fd5b506101d5610431565b604080519115158252519081900360200190f35b3480156101f557600080fd5b5061014b6104d6565b34801561020a57600080fd5b5061011a6105a2565b34801561021f57600080fd5b506100f36105b1565b34801561023457600080fd5b5061023d6105b7565b6040518082600381111561024d57fe5b60ff16815260200191505060405180910390f35b34801561026d57600080fd5b506100dc6105c0565b34801561028257600080fd5b506100f3610634565b34801561029757600080fd5b506101d560043561063a565b3480156102af57600080fd5b506100dc6106a0565b3480156102c457600080fd5b506101d561072e565b6001544211156102dc57600080fd5b60055434116102ea57600080fd5b3415156102f657600080fd5b6005541561032357600554600454600160a060020a03166000908152600a60205260409020805490910190555b6004805473ffffffffffffffffffffffffffffffffffffffff191633600160a060020a031690811790915534600581905560408051928352602083019190915280517ff4757a49b326036464bec6fe419a4ae38c8a02ce3e68bf0809674f6aab8ad3009281900390910190a1565b60015481565b600054600160a060020a031681565b6002805460408051602060018416156101000260001901909316849004601f810184900484028201840190925281815292918301828280156104295780601f106103fe57610100808354040283529160200191610429565b820191906000526020600020905b81548152906001019060200180831161040c57829003601f168201915b505050505081565b600160a060020a0333166000908152600a6020526040812054818111156104ad57600160a060020a0333166000818152600a60205260408082208290555183156108fc0291849190818181858888f1935050505015156104ad57600160a060020a0333166000908152600a6020526040812082905591506104d2565b60055430600160a060020a03163114156104cd5730600160a060020a0316ff5b600191505b5090565b606060018060065460ff1660038111156104ec57fe5b146104f657600080fd5b60045433600160a060020a0390811691161461051157600080fd5b6003805460408051602060026001851615610100026000190190941693909304601f810184900484028201840190925281815292918301828280156105975780601f1061056c57610100808354040283529160200191610597565b820191906000526020600020905b81548152906001019060200180831161057a57829003601f168201915b505050505091505090565b600454600160a060020a031681565b60095481565b60065460ff1681565b60028060065460ff1660038111156105d457fe5b146105de57600080fd5b60005433600160a060020a039081169116146105f957600080fd5b600554604051600160a060020a0333169180156108fc02916000818181858888f19350505050158015610630573d6000803e3d6000fd5b5050565b60055481565b600060018060065460ff16600381111561065057fe5b1461065a57600080fd5b60045433600160a060020a0390811691161461067557600080fd5b600754831415610695576006805460ff191660021790556001915061069a565b600091505b50919050565b6001544210156106af57600080fd5b600b5460ff16156106bf57600080fd5b600b805460ff1916600117905560045460055460408051600160a060020a039093168352602083019190915280517fdaec4582d5d9595688c8c98545fdd1c696d41c6aeaeb636737e84ed2f5c00eda9281900390910190a16006805460ff191660011790556008544201600955565b600060018060065460ff16600381111561074457fe5b1461074e57600080fd5b60095442101561075d57600080fd5b6006805460ff19166003179055600554600160a060020a0330163114156104cd5730600160a060020a0316ff00a165627a7a72305820b4dc627920fb020724c781cf4863a528d084c5d7eb0c777ebd0602f1c4e6ae430029",
  "source": "pragma solidity ^0.4.19;\n\ncontract dataAuction {\n    // Parameters of the auction. Times are either\n    // absolute unix timestamps (seconds since 1970-01-01)\n    // or time periods in seconds.\n    address public beneficiary; // Owner of the auction\n    uint public auctionEnd; // End time of the auction to be calculated\n    string public metadata; // Auction metadata, should be replaced by IPFS\n    string apiKey;\n\n    address public highestBidder;\n    uint public highestBid;\n    \n    // Open:bidding, Locked:auction closed and highest bid set\n    // Completed: data exanged successfully and seller paid\n    // Incomplete: data not exchanged in given time and only outbid users can retrieve funds, buyer funds burned\n    enum State { Open, Locked, Completed, Incomplete }  \n    State public state; // Current state of the auction.\n\n    \n    bytes32 sellerHash; // Hash of seller's first 256 bytes of data\n    \n    uint collectionPeriod; //Seconds\n    uint public collectionEnd; //Set after auction lock\n    \n\n    // Allowed withdrawals of previous bids\n    mapping(address => uint) pendingReturns;\n\n    // Set to true at the end, disallows any change\n    bool ended;\n\n    // Events that will be fired on changes.\n    event HighestBidIncreased(address bidder, uint amount);\n    event AuctionEnded(address winner, uint amount);\n\n    //Check for a specified state\n    modifier inState(State _state) {\n        require(state == _state);\n        _;\n    }\n    \n    //Check if transaction started by buyer\n    modifier onlyBuyer() {\n        require(msg.sender == highestBidder);\n        _;\n    }\n\n    //Check if transaction started by seller\n    modifier onlySeller() {\n        require(msg.sender == beneficiary);\n        _;\n    }\n\n    // The following is a so-called natspec comment,\n    // recognizable by the three slashes.\n    // It will be shown when the user is asked to\n    // confirm a transaction.\n\n    /// Create a simple auction with `_biddingTime`\n    /// seconds bidding time on behalf of the\n    /// beneficiary address `_beneficiary`.\n    function dataAuction(\n        uint _biddingTime,\n        address _beneficiary,\n        uint _collectionPeriod,\n        bytes32 _sellerHash,\n        string _metadata,\n        string _apiKey\n    ) public {\n        require(_biddingTime >= 0);\n        require(_beneficiary != 0);\n        apiKey = _apiKey;\n        beneficiary = _beneficiary;\n        auctionEnd = now + _biddingTime;\n        metadata = _metadata;\n        state = State.Open;\n        collectionPeriod = _collectionPeriod;\n        sellerHash = _sellerHash;\n    }\n    \n    \n    \n    /// Bid on the auction with the value sent\n    /// together with this transaction.\n    /// The value will only be refunded if the\n    /// auction is not won.\n    function bid() public payable {\n        // No arguments are necessary, all\n        // information is already part of\n        // the transaction. The keyword payable\n        // is required for the function to\n        // be able to receive Ether.\n\n        // Revert the call if the bidding\n        // period is over.\n        require(now <= auctionEnd);\n\n        // If the bid is not higher, send the\n        // money back.\n        require(msg.value > highestBid);\n\n        require(msg.value != 0);\n\n        if (highestBid != 0) {\n            // Sending back the money by simply using\n            // highestBidder.send(highestBid) is a security risk\n            // because it could execute an untrusted contract.\n            // It is always safer to let the recipients\n            // withdraw their money themselves.\n            pendingReturns[highestBidder] += highestBid;\n        }\n        highestBidder = msg.sender;\n        highestBid = msg.value;\n        HighestBidIncreased(msg.sender, msg.value);\n    }\n\n    /// Withdraw a bid that was overbid.\n    function refundBid() public returns (bool) {\n        uint amount = pendingReturns[msg.sender];\n        if (amount > 0) {\n            // It is important to set this to zero because the recipient\n            // can call this function again as part of the receiving call\n            // before `send` returns.\n            pendingReturns[msg.sender] = 0;\n\n            if (!msg.sender.send(amount)) {\n                // No need to call throw here, just reset the amount owing\n                pendingReturns[msg.sender] = amount;\n                return false;\n            }\n        }\n        if(address(this).balance==highestBid){\n            selfdestruct(this);\n        }\n        return true;\n    }\n    \n    // Seller can get reward if buyer has verified it\n    function withdrawReward() public inState(State.Completed)  onlySeller() {\n        msg.sender.transfer(highestBid);\n    }\n    \n    // Confirm that buyer has payload, pay seller\n    function confirmExchange(bytes32 buyerHash) public inState(State.Locked) onlyBuyer() returns (bool) {\n        if(buyerHash==sellerHash){\n            state = State.Completed;\n            return true;\n        }\n        return false;\n    }\n    // Retrieve key\n    function retrieveKey() public inState(State.Locked) onlyBuyer() returns (string) {\n        return apiKey;\n    }\n    \n    // Allows users to check if the auction has been completed. \n    // If not after the collection period, then the auction becomes incomplete and buyer's money is gone\n    function incomplete() public inState(State.Locked) returns (bool) {\n        require(now >= collectionEnd); // collection period is over\n        state = State.Incomplete;\n        if(address(this).balance == highestBid){\n            selfdestruct(this);\n        }\n        return true;\n    }\n    \n    /// End the auction and set state to locked\n    function endAuction() public {\n\n        require(now >= auctionEnd); // auction did not yet end\n        require(!ended); // this function has already been called\n\n        ended = true;\n        AuctionEnded(highestBidder, highestBid);\n\n        state = State.Locked;\n        collectionEnd = now + collectionPeriod;\n\n    }\n}",
  "sourcePath": "/Users/austinhwang/Documents/GitHub/datachain/contracts/dataAuction.sol",
  "compiler": {
    "name": "solc",
    "version": "0.4.23+commit.124ca40d.Emscripten.clang"
  },
  "schemaVersion": "2.0.0",
  "updatedAt": "2018-04-28T18:59:43.035Z"
}