{
  "contractName": "SimpleStorage",
  "abi": [
    {
      "constant": true,
      "inputs": [],
      "name": "storedData",
      "outputs": [
        {
          "name": "",
          "type": "uint256"
        }
      ],
      "payable": false,
      "stateMutability": "view",
      "type": "function"
    },
    {
      "anonymous": false,
      "inputs": [
        {
          "indexed": false,
          "name": "_message",
          "type": "string"
        }
      ],
      "name": "StorageSet",
      "type": "event"
    },
    {
      "constant": false,
      "inputs": [
        {
          "name": "x",
          "type": "uint256"
        }
      ],
      "name": "set",
      "outputs": [],
      "payable": false,
      "stateMutability": "nonpayable",
      "type": "function"
    }
  ],
  "bytecode": "0x6060604052341561000f57600080fd5b6101238061001e6000396000f30060606040526004361060485763ffffffff7c01000000000000000000000000000000000000000000000000000000006000350416632a1afcd98114604d57806360fe47b114606f575b600080fd5b3415605757600080fd5b605d6084565b60405190815260200160405180910390f35b3415607957600080fd5b6082600435608a565b005b60005481565b60008190557f60cdc157ca4737a5d39a0e107532616e7bf6946e615228812c7f9bc9f81797a660405160208082526019908201527f446174612073746f726564207375636365737366756c6c7921000000000000006040808301919091526060909101905180910390a1505600a165627a7a7230582004cc332c9c510819e911f2e6a26c5e911ca270f168619a0b0b07e85682997ebb0029",
  "source": "pragma solidity ^0.4.18;\n\ncontract SimpleStorage {\n  event StorageSet(\n    string _message\n  );\n\n  uint public storedData;\n\n  function set(uint x) public {\n    storedData = x;\n\n    StorageSet(\"Data stored successfully!\");\n  }\n}\n",
  "sourcePath": "/Users/austinhwang/Documents/GitHub/datachain/contracts/SimpleStorage.sol",
  "compiler": {
    "name": "solc",
    "version": "0.4.21+commit.dfe3193c.Emscripten.clang"
  },
  "schemaVersion": "2.0.0",
  "updatedAt": "2018-04-02T05:37:37.204Z"
}